:10262E00535443313546324B363053322055415296
:10263E00543120546573742050726772616D6D65EC
:04264E00210D0A0050
:1025300090003B7440F0A37402F0A31212700001EB
:10254000C2009000427401F0E4A3F0A304F0A3F0F1
:10255000E4A3F0A3F07B017A00793B7F011218CD50
:092560007BFF7A26792E0226EB9E
:1012BB000000000000000000000000000000000023
:1012CB000000000000000000000000000000000013
:1012DB000000000000000000000000000000008083
:1012EB00C0C02020F0F0F8F8F8180C0C0C2CFCFC0B
:1012FB00FCFCFCBC9C0C68F8F8F8F0F0E060C0C09B
:10130B008000000000000000000000000000000052
:10131B0000000000000000000000000000000000C2
:10132B0000000000000000000000000000000000B2
:10133B0000000000000000000000000000000000A2
:10134B000000000000000000000000000000000092
:10135B000000000000000080E0F0B80C4EBFBFFFA3
:10136B00FFFEDCF8F5FFFFFFFFFFFFFFFFFFFF7F37
:10137B007F3F1F9F0FCFF3FBFFFFFFFDECD8FEFF5F
:10138B00FFFF3F1E8C98F0E0800000000000000083
:10139B000000000000000000000000000000000042
:1013AB000000000000000000000000000000000032
:1013BB000000000000000000000000000000000022
:1013CB000000000000000000000000000000000012
:1013DB0000000080F0FCFFFFFFFFFFFEFEFBFFFFA6
:1013EB00FFFFFF7F7F736363070707070707030091
:1013FB00000706060707074363737B7F3FFFFFFF6B
:10140B00FFFEFBF7DFFFFFFFFFFFFCF0800000009C
:10141B0000000000000000000000000000000000C1
:10142B0000000000000000000000000000000000B1
:10143B0000000000000000000000000000000000A1
:10144B000000000000000000000000000000000091
:10145B000000FCFF3F3F7FFFFFFFFFFFFFFFFFFF92
:10146B00FFFFEFCF8E8C0800000000000002000091
:10147B00000002000000000000088C8ECFE7FFFF89
:10148B00FFFFFFFFFFFFFFFFFF3F3FBFFFF8000026
:10149B000000000000000000000000000000000041
:1014AB000000000000000000000000000000000031
:1014BB000000000000000000000000000000000021
:1014CB000000000000000000000000000000000011
:1014DB0000001FFFFA5A4BFFFFFFFFFFFFFFFFFF4D
:1014EB00FEFDFDF9F9F9F3F2F6F4F4F4ECE000C0CB
:1014FB004000E0ECE4F4F0F2F6F9F9F9F9FDFCFE4A
:10150B00FFFFFFFFFF7FFFFF9FA995D9FF0F000094
:10151B0000000000000000000000000000000000C0
:10152B0000000000000000000000000000000000B0
:10153B0000000000000000000000000000000000A0
:10154B000000000000000000000000000000000090
:10155B00000000010F3FFFE6B35F9FFBF7DFBF7F8C
:10156B00FFFFFFFFFFFFFFFFFFFFFFFFFFFFFFFE81
:10157B00FEFFFFFFFFFFFFFFFFFFFFFFFFFFFFFF71
:10158B007FBFDFF7BB3F27FBE57D1D070100000099
:10159B000000000000000000000000000000000040
:1015AB000000000000000000000000000000000030
:1015BB000000000000000000000000000000000020
:1015CB000000000000000000000000000000000010
:1015DB000000000000000001030F1F3B3D63E39F71
:1015EB008EED7B9FF77FFF7FFFFFFFFFFBF3FFFB83
:1015FB00F3F3F3FBFFFFFFFFFFFFFFB77FDB9D3E27
:10160B00E3CF6D381C0F0703010000000000000042
:10161B0000000000000000000000000000000000BF
:10162B0000000000000000000000000000000000AF
:10163B00000000000000000000000000000000009F
:10164B00000000000000000000000000000000008F
:10165B00000000000000000000000000000000017E
:10166B0001030307060F0D1E1F1B1B1F3F3D3F31C1
:10167B00353F3F1D181B1F1C1C0F0F0706030301D3
:10168B00010000000000000000000000000000004E
:10169B00000000000000000000000000000000003F
:1016AB00000000000000000000000000000000002F
:10256900410003004100040041001000410028011E
:102579004100290141002A01C100C101C1024100F4
:102589000000410027004200010000420025000030
:0B18CD00900048EBF0A3EAF0A3E9F064
:1018D800EF64016003021A8890000504F0E4A3F0A5
:1018E800A3F0A3F0A3F0A3F0A3F0A3F0A3F0A3F058
:1018F800A3F0FF7E147808E4F608DEFCE4FF7E140B
:10190800900011E4F0A3DEFC7E00900048E0FBA309
:10191800E0FAA3E0F9121020D394C040037F01221B
:1019280090000A121039B40104D2BC8002C2BC1261
:101938001020FFE598543F4FF598EF64C06008EF1A
:1019480064406003021A02900048E0FBA3E0FAA397
:10195800E0F99000021212347F807E8D7D5B7C005E
:1019680012115790004BEEF0A3EFF0E4FCFDFBFAE8
:101978007901F8D31211F750037F022290004BE04F
:10198800FEA3E0FFC3E49FFFE49E90004BF0A3EFAB
:10199800F0900048E0FBA3E0FAA3E0F99000011200
:1019A8001039FD64017027C28E538EFE5389BF53D0
:1019B80089CF438E4090004BE0FAA3E0FBEAF58D17
:1019C8008B8BC2AB5389BF538FFDD28E8065ED647C
:1019D800027024538EEF438E01538EF7438E04908A
:1019E800004BE0FCA3E0FDECF5D68DD753AFFB53DD
:1019F8008EF7438E10803C7F0222900048E0FBA3C4
:101A0800E0FAA3E0F9121020FF70139000081210FA
:101A180039B40105438E20801A538EDF8015EFB448
:101A28008011900008121039B401054387808003A3
:101A380053877F900048E0FBA3E0FAA3E0F9900009
:101A480009121039B40104D2AC8002C2AC9000076C
:101A5800121039B40104D29C8002C29C90000B126F
:101A6800103954C0FFE5A2543F4FF5A290000C1264
:101A78001039B4010543971080035397EF7F002274
:021A88007F03DA
:011A8A002239
:1025D400900008A3E02408F8A607900008E475F02A
:1025E400011210EFFEC3E5F09414EE94004007E4EA
:1025F400900008F0A3F090000AE0700404F0D2996F
:0126040022B3
:1026EB00121020FF600C1225D4740129F9E43AFA78
:0326FB0080EE224C
:030023000220694F
:10206900C0E0C0F0C083C082C0D075D000C000C03D
:1020790004C005C006C00730983DC29890000FE023
:102089007035C390000CE0941490000BE09400406C
:1020990004E4F0A3F090000BE475F001121105FEC1
:1020A900741125F0F58274003EF583E599F09000EE
:1020B9000DE4F0A37405F0309943C299900008E04B
:1020C900FEA3E0FF900006E0FCA3E0FD6F7002ECC8
:1020D9006E602574082DF8E6F599900006E475F010
:1020E900011210EFFEC3E5F09414EE9400400E9037
:1020F9000006E4F0A3F0800590000AE4F0D007D0D0
:1021090006D005D004D000D0D0D082D083D0F0D072
:02211900E032B2
:1027420043D10275D54075D4A243D10843AF2022AC
:1000260090002DEFF0E0FF7401A807088002C333AB
:10003600D8FCF59DEF24E0F5BC5397DFEF24E8F5F7
:10004600BC8005E5BC20E4097F0A7E001226FE80FE
:10005600F290002DE024E0F5BCAFBD900001E4F085
:10006600A3EFF0900001E0FEA3E07802C333CE33A5
:10007600CED8F9F0EE900001F0AFBEA3E02FF090DD
:100086000001E03400F0E4F5BDF5BEE0FEA3E0FFBC
:010096002247
:03009B00021F3A07
:101F3A00C0E0C0F0C083C082C0D075D000C000C06D
:0D1F4A0001C002C003C004C005C006C007EE
:101F5700C2AF900000E004F0E0640A600302204C86
:101F6700F0900027E004F0E0B41404E4F0B2A57F99
:101F770004120026900025EEF0A3EFF0900025E074
:101F8700FEA3E07802CEC313CE13D8F9FFC3940A99
:101F9700EE94009000035004E4F080037401F0D342
:101FA700EF9464EE9400400FEF9496EE9400500780
:101FB700900004E4F080069000047401F0D3EF94DD
:101FC700A0EE9400400FEF94C8EE940050079000E5
:101FD70010E4F080069000107401F0900028E0FFF4
:101FE700B4F004D2008002C200900029E0FEB4F0F1
:101FF70004D2018002C20190002AE0FDB4F004D2AD
:10200700028002C202EF25E0FF900003E02F90005C
:1020170028F0EE25E0FF900004E02F900029F0ED76
:1020270025E0FF900010E02F90002AF0900025E0B7
:10203700FAA3E0FB9000317404F0A37410F07D065E
:07204700E4FF1221CBD2AF30
:10204E00D007D006D005D004D003D002D001D000E6
:0B205E00D0D0D082D083D0F0D0E03290
:10269400D2A7D2A67F647E001226FEC2A77F0A7E3E
:0D26A400001226FEC2A67F0A7E000226FE5E
:1026B100C2A7C2A67F0A7E001226FED2A67F0A7E8C
:0D26C100001226FEC2A77F0A7E000226FE40
:1026CE00A20492A77F0A7E001226FED2A67F0A7E61
:0D26DE00001226FEC2A67F0A7E000226FE24
:05276200D2040226CEA6
:05276700C2040226CEB1
:1025A200E490003BF0A3F0EFF0E490003BF09000E9
:1025B2003CE030E704D2048002C2041226CE90002E
:1025C2003CE025E0F090003BE004F0E0C3940840DA
:0125D200DD2B
:0125D30022E5
:101A8B00E4900037F0A3F0A3F0A37406F0D2AFE418
:101A9B00F59175922075958A7596FF75B10875B29B
:101AAB00FC75C91075CA3012211B122605122605AA
:101ABB0090003E7408F0A374FFF0A37412F0A374AB
:101ACB00BBF07B80E4FDFF1223067FD07E0712273D
:101ADB000F122605E4FBFD7F101224A77B01E4FD0A
:101AEB007F201224A77B02E4FD7F301224A77B0307
:101AFB00E4FD7F401224A77B04E4FD7F501224A752
:101B0B007B05E4FD7F601224A77B067D02E4FF12B8
:101B1B0024A77B077D027F101224A77B087D027F01
:101B2B00201224A77B097D027F301224A77B0A7D1C
:101B3B00027F401224A77B0B7D027F501224A77BD0
:101B4B000C7D027F601224A77B0D7D027F70122417
:101B5B00A71225301227421226947F201225A2129B
:101B6B0027627FD01225A21227627F011225A212B3
:101B7B002762900039E0FEA3E07802CEC313CE13A8
:101B8B00D8F9FF1225A2122762900039A3E0540363
:101B9B00C4333354C04410FF1225A2122762E4FF52
:101BAB001225A21227627F401225A21227627F9074
:101BBB001225A21227627F801225A21227621226FB
:101BCB00B1D390000EE0940090000DE094004047DC
:101BDB0074FFF5F01210EF45F0703CD390000CE061
:101BEB00940090000BE094004026E4FDFCD39000A1
:101BFB000CE09D90000BE09C401674112DF582E4D7
:101C0B003400F583E0FF1225D40DBD00010C80DDFF
:101C1B00E490000BF0A3F07FE87E0312270F9000F7
:0B1C2B0037E004F0E0FF1225D48096A3
:06275B0000007F03DFFE19
:012761002255
:1026FE00AD07AC0612275BED1D70011C144C70F477
:01270E0022A8
:082752007F187E55DEFEDFFC5E
:01275A00225C
:10270F00AD07AC06122752ED1D70011C144C70F46E
:01271F002297
:10009E000000000000000000002F0000000007001C
:1000AE00070000147F147F1400242A7F2A12006296
:1000BE006408132300364955225000000503000042
:1000CE0000001C224100000041221C000014083ECA
:1000DE0008140008083E0808000000A06000000890
:1000EE0008080808000060600000002010080402E4
:1000FE00003E5149453E0000427F400000426151A2
:10010E004946002141454B31001814127F1000273B
:10011E0045454539003C4A494930000171090503FE
:10012E0000364949493600064949291E000036362F
:10013E000000000056360000000814224100001492
:10014E00141414140000412214080002015109066F
:10015E0000324959513E007C1211127C007F4949F0
:10016E004936003E41414122007F4141221C007F21
:10017E0049494941007F09090901003E4149497A2F
:10018E00007F0808087F0000417F410000204041A9
:10019E003F01007F08142241007F40404040007F15
:1001AE00020C027F007F0408107F003E4141413E59
:1001BE00007F09090906003E4151215E007F0919A1
:1001CE0029460046494949310001017F0101003F9E
:1001DE004040403F001F2040201F003F4038403F1E
:1001EE000063140814630007087008070061514982
:1001FE00454300007F41410000552A552A55000015
:10020E0041417F0000040201020400404040404092
:10021E00000001020400002054545478007F48442A
:10022E00443800384444442000384444487F003861
:10023E005454541800087E0901020018A4A4A47C8A
:10024E00007F080404780000447D40000040808454
:10025E007D00007F102844000000417F4000007C9C
:10026E0004180478007C08040478003844444438A8
:10027E0000FC242424180018242418FC007C0804F4
:10028E00040800485454542000043F444020003CCD
:10029E004040207C001C2040201C003C4030403C54
:1002AE00004428102844001CA0A0A07C00446454E4
:1002BE004C44141414141414000000000000000028
:1002CE000000000000000000000000F80000000028
:1002DE00000000333000000000100C06100C060069
:1002EE00000000000000000040C07840C0784000D0
:1002FE00043F04043F040400007088FC0830000032
:10030E00001820FF211E0000F008F000E018000089
:10031E0000211C031E211E0000F008887000000042
:10032E001E2123241927211010160E000000000094
:10033E000000000000000000000000E018040200B1
:10034E00000000071820400000020418E000000022
:10035E000040201807000000404080F08040400020
:10036E000202010F01020200000000F00000000076
:10037E000101011F0101010000000000000000004A
:10038E0080B07000000000000000000000000000BF
:10039E000001010101010101000000000000000048
:1003AE0000303000000000000000000080601804E3
:1003BE00006018060100000000E010080810E000C0
:1003CE00000F102020100F00001010F80000000089
:1003DE000020203F202000000070080808887000D0
:1003EE000030282422213000003008888848300050
:1003FE000018202020110E000000C02010F8000070
:10040E0000070424243F240000F808888808080008
:10041E000019212020110E0000E01088881800001D
:10042E00000F112020110E0000380808C8380800EF
:10043E000000003F0000000000708808088870006F
:10044E00001C222121221C0000E010080810E000F0
:10045E000000312222110F00000000C0C000000079
:10046E00000000303000000000000080000000009E
:10047E000000806000000000000080402010080096
:10048E00000102040810200040404040404040005F
:10049E00040404040404040000081020408000003A
:1004AE000020100804020100007048080808F0003F
:1004BE000000003036010000C030C828E810E0000F
:1004CE000718272423140B000000C038E00000009A
:1004DE00203C23020227382008F888888870000004
:1004EE00203F202020110E00C030080808083800D8
:1004FE00071820202010080008F808080810E0004F
:10050E00203F202020100F0008F88888E8081000EF
:10051E00203F20202320180008F88888E8081000C3
:10052E00203F200003000000C030080808380000FB
:10053E0007182020221E020008F808000008F808FC
:10054E00203F210101213F20000808F80808000083
:10055E000020203F2020000000000808F8080800B6
:10056E00C08080807F00000008F888C0281808002E
:10057E00203F20012638200008F808000000000067
:10058E00203F20202020300008F8F800F8F808005E
:10059E00203F003F003F200008F830C00008F80858
:1005AE00203F200007183F00E01008080810E00068
:1005BE000F10202020100F0008F808080808F0007F
:1005CE00203F210101010000E01008080810E000A2
:1005DE000F18242438504F0008F888888888700037
:1005EE00203F2000030C30200070880808083800D7
:1005FE000038202121221C00180808F808081800CD
:10060E000000203F2000000008F808000008F8084D
:10061E00001F202020201F000878880000C83808FE
:10062E00000007380E010000F80800F80008F80076
:10063E00033C0700073C0300081868808068180810
:10064E0020302C03032C30200838C800C83808008E
:10065E000000203F2000000010080808C8380800DD
:10066E002038262120201800000000FE0202020081
:10067E000000007F40404000000C30C00000000031
:10068E00000000010638C00000020202FE00000059
:10069E00004040407F0000000000040202020400FF
:1006AE00000000000000000000000000000000003C
:1006BE008080808080808080000202040000000024
:1006CE00000000000000000000008080808000001C
:1006DE000019242222223F2008F80080800000000A
:1006EE00003F112020110E000000008080800000CD
:1006FE00000E112020201100000000808088F800DC
:10070E00000E112020103F2000008080808000000D
:10071E00001F222222221300008080F08888881871
:10072E000020203F2020000000008080808080007C
:10073E00006B94949493600008F800808080000011
:10074E00203F210000203F200080989800000000EC
:10075E000020203F2020000000000080989800001C
:10076E0000C08080807F000008F80000808080003C
:10077E00203F24022D302000000808F80000000061
:10078E000020203F2020000080808080808080001C
:10079E00203F20003F20003F8080008080800000AE
:1007AE00203F210000203F2000008080808000003C
:1007BE00001F202020201F0080800080800000006D
:1007CE0080FFA12020110E0000000080808080009C
:1007DE00000E112020A0FF8080808000808080008D
:1007EE0020203F21200001000000808080808000BA
:1007FE000033242424241900008080E0808000002F
:10080E000000001F2020000080800000008080007B
:10081E00001F202020103F208080800000808080DC
:10082E0000010E300806010080800080008080806C
:10083E000F300C030C300F00008080008080800091
:10084E000020312E0E3120008080800000808080BC
:10085E0080818E701806010000808080808080006C
:10086E000021302C2221300000000000807C02028A
:10087E0000000000003F404000000000FF000000AC
:10088E0000000000FF0000000002027C800000005B
:10089E000040403F00000000000601010202040477
:1008AE0000000000000000000020202020FF0000BB
:1008BE0000FF4020100800000000000000000000B3
:1008CE0000000000000000002060201010FF00005B
:1008DE00003F404040407800000000000000000053
:1008EE000000000000000000040404E42424252677
:1008FE00242424E40404040000000000000000008E
:10090E0000000000000000000040201B0242827E1A
:10091E000202020B10600000000000000000000048
:10092E000000000000000000048484FC848400FEAB
:10093E009292FE9292FE0000000000000000000065
:10094E0000000000000000002060201F1010404436
:10095E0044447F4444444000000000000000000076
:10096E00000000000000000000040404040404FC65
:10097E000404040404040000000000000000000051
:10098E000000000000000000202020202020203F3A
:10099E002020202020202000000000000000000069
:1009AE00000000000000000020202020202020FF5A
:1009BE002020202020202000000000000000000049
:1009CE00000000000000000080804020100C03009A
:1009DE00030C10204080800000000000000000008A
:1009EE00000000000000000040301196909091969B
:1009FE00909098141350300000000000000000008A
:100A0E000000000000000000040404040444847E7E
:100A1E0006050404040404000000000000000000A9
:100A2E0000000000000000008040301E101010FF7B
:100A3E001010101010100000000000000000000048
:100A4E000000000000000000404042424242427F4F
:100A5E0042424242424040000000000000000000BE
:100A6E000000000000000000403C10FF101020109D
:100A7E008F7808F808F80000000000000000000061
:100A8E000000000000000000020602FF0101044207
:100A9E0021184681403F00000000000000000000C9
:100AAE000000000000000000100C04841464050611
:100ABE00F404040404140C00000000000000000004
:100ACE000000000000000000048484444724140C3D
:100ADE00070C1424448404000000000000000000F1
:100AEE00000000000000000002FA8282FE8040201A
:100AFE00504C434C5020400000000000000000000D
:100B0E00000000000000000008184884443F4044E4
:100B1E0058414E60584740000000000000000000A1
:100B2E00000000000000000020A4A4A4FFA4B4282C
:100B3E0084708F0808F80800000000000000000014
:100B4E000000000000000000040A49887E050484AD
:100B5E004020130C33408000000000000000000015
:100B6E000000000000000000403011969090919619
:100B7E009090981413503000000000000000000008
:100B8E000000000000000000040404040444847EFD
:100B9E000605040404040400000000000000000028
:100BAE0000000000000000000000F010101010FF08
:100BBE0010101010F00000000000000000000000F7
:100BCE00000000000000000000000F04040404FFF9
:100BDE00040404040F0000000000000000000000E8
:100BEE0000000000000000000000800000E0020491
:100BFE00180000004080000000000000000000000F
:100C0E000000000000000000100C0300003F4040F8
:100C1E004040407800010E0000000000000000007F
:100C2E000000000000000000F8FEFEFFFFFFFEFCCB
:100C3E00FCFEFEFFFFFEFEF80000000000000000BC
:100C4E0000000000000000000001070F0F1F3F7F93
:100C5E007F3F1F0F0F070100000000000000000083
:080C6E0000000000000000007E
:0825990041006A1F41006B1FA5
:1024F600F583E5822CF582E43583F583E493FF7D4D
:0125060001D3
:10250700ED6004D2B58002C2B5C2B4E4FEC2A0EF4A
:1025170030E704D2B78002C2B7D2A0EF25E0FF0EA2
:08252700EEB408E9D2B4D2B50C
:01252F002289
:10211B00D2B67F647E0012270FC2B67F647E001298
:10212B00270FD2B6E4FD7FAE122507E4FF12250779
:10213B007F101225077F401225077F811225077F0D
:10214B00CF1225077FA11225077FC81225077FA66F
:10215B001225077FA81225077F3F1225077FD31271
:10216B002507E4FF1225077FD51225077F8012254F
:10217B00077FD91225077FF11225077FDA12250772
:10218B007F121225077FDB1225077F401225077F61
:10219B00201225077F021225077F8D1225077F143A
:1021AB001225077FA41225077FA61225077FAF12E2
:1021BB0025077FAF122507122605E4FDFF0200035A
:10000300AC07ED24B0FFE4FD122507EC54F0C45413
:100013000F4410FF122507EC540F4401FF0225077C
:10272000E4FD7F8D1225077F141225077FAF022558
:0127300007A1
:10273100E4FD7F8D1225077F101225077FAE02254C
:012741000790
:10260500E4FCEC24B0FFE4FD122507E4FF122507E6
:102615007F10122507E4FB7D01E4FF1225070BEB74
:08262500B480F40CECB408DAF7
:01262D00228A
:07267600900036EFF0A9050A
:10267D007F017E00AD0119ED600C900036E0FD7C10
:06268D000012108880EE2F
:012693002224
:06238A00AA07A905AF033C
:10239000E4FCEF24E0FBEAD3947F4004E4FA09096B
:1023A000AF02AD01120003E4FC75F010EBA42CF5B4
:1023B00082E435F0F583E58224C6F582E5833402B4
:1023C0001225000CECB408E1AF02E904FD12000391
:1023D000E4FC75F010EBA42CF582E435F0F583E510
:1023E0008224CEF582E58334021225000CECB40879
:0223F000E122E8
:0E21CB0090002DEFF0A3EDF0A3EAF0A3EBF0EF
:1021D900E4900035F0900033F0900031E0FF90007A
:1021E90033E0FEC39F4003022279C3EF9E14FD7FB3
:1021F9000A12267690002FE0FCA3E0FDCFCDCFCECA
:10220900CCCE12109A7C007D0A12109A900034EDFF
:10221900F0A3E07030900031E014FF900033E0FE4D
:10222900C39F5021A3E07017900032E0C3138EF0D2
:10223900A4FF90002DE02FFFA3E0FD7B20802590D7
:1022490000357401F0900032E0C313FFA3E0FEEF04
:102259008EF0A4FF90002DE02FFFA3E0FD90003445
:10226900E02430FB12238A900033E004F00221E2DB
:012279002242
:1024530090005EEFF0A3EDF0A3EBF0A3EAF0A3E9A5
:01246300F088
:10246400E4A3F0900060E0FBA3E0FAA3E0F9A3E0AA
:10247400F582758300121039FB602790005EE0FF3F
:10248400A3E0FD12238A90005EE02408F0E0D394D8
:10249400784007E4F0A3E02402F0900063E004F045
:0224A40080C1F5
:0124A6002213
:0424A700A907AA05D2
:1024AB00E490003BF0120003E4FC75F040EBA42435
:1024BB00B6F582E5F034081224F690003BE004F008
:1024CB000CECB410E5AF01EA04FD120003E4FC755B
:1024DB00F040EBA424D6F582E5F034081224F690F4
:0A24EB00003BE004F00CECB410E537
:0124F50022C4
:0A23060090003BEFF090003DEBF07B
:10231000E4900042F0A3F090003EE0FF5407700804
:10232000EF131313541F800A90003EE0131313544D
:102330001F04900044F0900044EDF090003EE0FF58
:10234000900044E0FDC39F504090003BE0FF12002E
:1023500003E0FC90003DE0FFECC39F502490003F61
:10236000E0FBA3E0FAA3E0F9A3E475F00112110584
:1023700085F082F583121039FF7D011225070C804C
:09238000D2900044E004F080B2A8
:012389002231
:06265200131313541FFDD9
:10265800AC07ED24B0FFE4FD122507EC54F0C45498
:0E2668000F4410FF122507EC540FFF02250748
:101DBE00FFA3E004FD900051E0F9A3E0FAA3E09048
:0C1DCE000059C9F0A3EAF0A3E9F07B0182
:0D1DDA00900057EDF0A3EBF0900056EFF0F5
:101DE700E490005CF0A3F0900057E0FE12265290BA
:101DF7000056E0FFA3E0FD131313541F75F080A4F2
:101E07002FF582E435F0F583C083C082900059E056
:101E1700FBA3E0FAA3E0F9D082D083121039FE9039
:101E27000058E0705BED5407B408004003021EDF62
:101E3700901E3EF8282873021E56021E5D021E637E
:101E4700021E69021E6F021E75021E7B021E81EEB4
:101E570054FEFE021EDFEE54FDFE807CEE54FBFEB8
:101E67008076EE54F7FE8070EE54EFFE806AEE54F3
:101E7700DFFE8064EE54BFFE805EEE547FFE805826
:101E8700900057E05407B40800504D901E99F82869
:101E97002873021EB1021EB7021EBD021EC3021E18
:101EA700C9021ECF021ED5021EDBEE4401FE8028AA
:101EB700EE4402FE8022EE4404FE801CEE4408FE3F
:101EC7008016EE4410FE8010EE4420FE800AEE4499
:101ED70040FE8004EE4480FEAF06900056E0FEA36D
:101EE700E0131313541FFD75F080A42EF582E4351B
:101EF700F0F583C083C082900059E0FBA3E0FAA30A
:101F0700E0F9D082D083EF12106675F080EDA42E31
:101F1700F582E435F0F583C083C082900059E0FB79
:101F2700A3E0FAA3E0F9D082D083121039FF7D0134
:031F370002250779
:0423F200AA05A9038C
:1023F600E4900068F0A3F0FBEA122652E97002802E
:1024060045EA5407B40800503D902416F82828736E
:1024160002242E02243202243602243A02243E02E8
:10242600244202244602244A7B01801A7B0280163B
:102436007B0480127B08800E7B10800A7B2080063E
:0D2446007B4080027B80AF037D01022507F3
:1016BB0090004D121264900051EBF0A3EAF0A3E9F5
:0116CB00F02E
:1016CC0090006AE0FFA3E0121DC290006AE004FFE4
:1016DC00A3E0121DC290006AE004121DBE90006AC5
:1016EC00E004FFA3E014121DC290006AE014FFA3F3
:1016FC00E0121DC290006AE014121DBE90006AE058
:10170C0014FFA3E014121DC290006AE0121DBE90DB
:10171C00006AE0FFA3E014121DC290004DE0FCA390
:10172C00E0FDA3E0FEA3E0FF121C7EE4FBFA79A02F
:10173C007841120D6EE4FBFA79F87841120C7D12A7
:10174C000E74900054EFF090004DE0FCA3E0FDA36C
:10175C00E0FEA3E0FF121C94E4FBFA79A07841129E
:10176C000D6EE4FBFA79F87841120C7D120E749030
:10177C000055EFF0FD900054E0FF900051E0F9A30C
:10178C00E0FAA3E0900059C9F0A3EAF0A3E9F0E471
:10179C00FB121DDA900054E004FFA3E0FD90005111
:1017AC00E0F9A3E0FAA3E0900059C9F0A3EAF0A392
:1017BC00E9F0E4FB121DDA900054E004FFA3E0040E
:1017CC00FD900051E0F9A3E0FAA3E0900059C9F0B4
:1017DC00A3EAF0A3E9F0E4FB121DDA900054E00454
:1017EC00FFA3E014FD900051E0F9A3E0FAA3E09010
:1017FC000059C9F0A3EAF0A3E9F0E4FB121DDA905A
:10180C000054E014FFA3E0FD900051E0F9A3E0FACE
:10181C00A3E0900059C9F0A3EAF0A3E9F0E4FB12AD
:10182C001DDA900054E014FFA3E004FD900051E099
:10183C00F9A3E0FAA3E0900059C9F0A3EAF0A3E9F8
:10184C00F0E4FB121DDA900054E014FFA3E014FD49
:10185C00900051E0F9A3E0FAA3E0900059C9F0A37D
:10186C00EAF0A3E9F0E4FB121DDA900054E0FFA3C8
:10187C00E004FD900051E0F9A3E0FAA3E0900059D8
:10188C00C9F0A3EAF0A3E9F0E4FB121DDA900054CE
:10189C00E0FFA3E014FD900051E0F9A3E0FAA3E00F
:1018AC00900059C9F0A3EAF0A3E9F0E4FB121DDAA9
:1018BC00900054E090006AF0900055E090006BF0BE
:0118CC0022F9
:100C7600020EE0E86480F8E933E83360110460F0BE
:100C8600ED33EC337009E8FCE9FDEAFEEBFF2204E4
:100C960060DED3EB9FEA9EE99DE8C2E78CF0C2F7DF
:100CA60095F0400CE8CCF8E9CDF9EACEFAEBCFFBAB
:100CB600120EAB85D0F05804700320D5B3E804704B
:100CC600075002B2D5020EEA92D5EC0460F7E4CCE6
:100CD600C0E0C398F8603B94186008400DD0E0FB74
:100CE600020EC2E4FBFAC9FC8028E830E406E4C937
:100CF600FBE4CAFCE830E305E4C9CACBFCE85407C8
:100D06006010F8C3E913F9EA13FAEB13FBEC13FCD2
:100D1600D8F130F52FC3E49CFCEF9BFFEE9AFEED75
:100D260099FDD0E0FBEF4E4D4C701222DB03020E14
:100D3600E7EC2CFCEF33FFEE33FEED33FDED30E751
:100D4600EB020EC2EF2BFFEE3AFEED39FDD0E0FBD3
:100D560050130BBB0003020EEAED13FDEE13FEEF7C
:080D660013FFEC13FC020EC2A6
:100D6E00EC4D6011E8497017ED33EC3304600DE47F
:100D7E00FCFFFEFD22E933E8330470F8020EE012A8
:100D8E000EAB58046009E4CC2481500628500902A9
:100D9E000EEA284003020EE7C0E0EB4A7044B98029
:100DAE0006D0E0FB020ED6EF4E701CBD8008EBFFA6
:100DBE00EAFEE9FD80EBE98DF0A4FEE5F0020E57A8
:100DCE00E9CDF9EAFEEBFFEF89F0A4FCE5F0CE8960
:100DDE00F0A42EFFE435F0CD89F0A42DFEE435F01D
:100DEE008067EF4E7005BD80D780C3EF8BF0A4AC4B
:100DFE00F0EE8BF0A42CFCE435F0F8EF8AF0A42C86
:100E0E00E5F038FCE433CB8DF0A42CFCE5F03BF898
:100E1E00EE8AF0A42CFCE5F038F8E433CF89F0A488
:100E2E002CFCE5F038CF3400CE89F0A42FFFE5F08E
:100E3E003EFEE433C98DF0A42EFEE5F039CD8AF0E6
:100E4E00A42FFFE5F03EFEE43DFD33D0E0FB50075E
:100E5E000BBB000F020EEAEC2CFCEF33FFEE33FE61
:060E6E00ED33FD020EC28F
:100E7400EDD2E7CD33EC3392D524814006E4FFFE76
:100E8400FDFC22FCE4CFCECDCC24E0501174FF80D5
:100E9400EDC3CC13CCCD13CDCE13CECF13CF047072
:070EA400F030D5DE0211E978
:101C36003A70FA83BCAAE9E43E81E0F8BF9DE9E682
:101C46003F80000039283C1ABB9969663DA335E3FD
:101C5600BF255DE73FC90FDB418DDBCCC44936EEBE
:101C660045C9913FC5B0F83D3F800000C317F53424
:101C7600452FFA73C60AFDDD121D3F04A2E1920349
:101C86001420E015901C367404120FD38030121DF8
:101C96003F30E102B20320E0EBA883A98290006402
:101CA60012126489828883901C4A7404120FD385A9
:101CB60082F090006412121885F082120D6EED4CBF
:101CC6006007300304EC6480FC22121D3FC0E0A8CC
:101CD60083A98290006412126489828883901C6EA4
:101CE6007403120FD38582F090006412121885F0E7
:101CF60082120D6E900064E0CCF0A3E0CDF0A3E07C
:101D0600CEF0A3E0CFF0901C5E7403120FD3D08206
:101D16008582F090006412121885F082E58230E028
:101D260007120EF8B2038096EFCBFFEECAFEEDC99E
:101D3600FDECC8FC120EF88085ED33EC547FCC33F5
:101D4600920324605007D0E0D0E0020EE07B837A55
:101D5600F97922783E120D6EEDF933ECF8332481D1
:101D66005011EFFBEEFA120E74120F95ECB2E7FC6F
:101D7600120C7DED33EC33602F2403F8C313FCED16
:101D860092E7FDE82481E4501FECF8EDF9EEFAEF56
:101D9600FB120E74EF04C2E0FCF582120F9FECB248
:101DA600E7FC120C7DE58203FAED33EC3360071491
:081DB60013FCED92E7FDEA22A7
:100EAB00E9D2E7C933E833F892D5EDD2E7CD33EC8D
:070EBB0033FC5002B2D52206
:100EC200EC30E7100FBF000C0EBE00080DBD000491
:100ED2000BEB6014A2D5EB13FCED92E7FD2274FF3D
:100EE200FCFDFEFF22E480F8A2D574FF13FC7D8096
:030EF200E480EFAA
:100EF500020EEAEC5D046005E859047003020EE099
:100F0500120EAB580460F6EC4860F2EC7004FDFE7E
:100F1500FF22C860DB2481C85009C39860025006CF
:100F2500020EE79850CAF582E9294B4A7005AB8253
:100F3500020ED675F0007C1A7880C3EF9BEE9AED11
:100F450099400DC3EF9BFFEE9AFEED99FDE842F047
:100F5500DC23ACF0D0E0FFD0E0FED0E0FDAB82209A
:100F6500E7101BEB60BAEC2CFCEF33FFEE33FEED24
:100F750033FD020EC2E803F830E705C0F075F00056
:100F8500EF2FFFEE33FEED33FD40B830E7C280AA08
:100F950075F020800E75F010800575F0087D007ED7
:100FA500007F003392D530D5031211E9EC334010A0
:100FB500EF33FFEE33FEED33FDEC33FCD5F0ED22E0
:0E0FC500E5F0247EA2D513CC92E7CDCEFF221C
:100FD300C0E0EFFBEEFAEDF9ECF8120D6ED0E0F5A0
:100FE300F0EFFBEEFAEDF9ECF8121208A3A3A3A3BA
:100FF300E8C0E0E9C0E0EAC0E0EBC0E0C0F0120DF9
:101003006E121224A3A3A3A3120C7DD0F0D0E0FB95
:0D101300D0E0FAD0E0F9D0E0F8D5F0D4221A
:0300000002227A5F
:0C227A00787FE4F6D8FD7581200222C1B7
:10102000BB010689828A83E0225002E722BBFE02CE
:09103000E32289828A83E4932201
:10103900BB010CE58229F582E5833AF583E022506C
:1010490006E92582F8E622BBFE06E92582F8E222B6
:0D105900E58229F582E5833AF583E49322D0
:10106600F8BB010DE58229F582E5833AF583E8F0C0
:10107600225006E92582C8F622BBFE05E92582C86C
:02108600F22254
:10108800EF8DF0A4A8F0CF8CF0A428CE8DF0A42E7C
:02109800FE2236
:10109A00BC000BBE0029EF8DF084FFADF022E4CC3A
:1010AA00F875F008EF2FFFEE33FEEC33FCEE9DEC03
:1010BA00984005FCEE9DFE0FD5F0E9E4CEFD22ED49
:1010CA00F8F5F0EE8420D21CFEADF075F008EF2F93
:1010DA00FFED33FD4007985006D5F0F222C398FD84
:0510EA000FD5F0EA2221
:1010EF00C5F0F8A3E028F0C5F0F8E582158270028C
:0610FF001583E038F02229
:10110500A3F8E0C5F025F0F0E5821582700215839D
:06111500E0C838F0E822FA
:10111B0075F008758200EF2FFFEE33FECD33CDCC8B
:10112B0033CCC58233C5829BED9AEC99E58298400E
:10113B000CF582EE9BFEED9AFDEC99FC0FD5F0D6EB
:10114B00E4CEFBE4CDFAE4CCF9A88222B800C1B915
:10115B000059BA002DEC8BF084CFCECDFCE5F0CB53
:10116B00F97818EF2FFFEE33FEED33FDEC33FCEB8C
:10117B0033FB10D703994004EB99FB0FD8E5E4F947
:10118B00FA227818EF2FFFEE33FEED33FDEC33FC34
:10119B00C933C910D7059BE99A4007EC9BFCE99A28
:1011AB00F90FD8E0E4C9FAE4CCFB2275F010EF2F6D
:1011BB00FFEE33FEED33FDCC33CCC833C810D7076D
:1011CB009BEC9AE899400AED9BFDEC9AFCE899F8A8
:0E11DB000FD5F0DAE4CDFBE4CCFAE4C8F9223B
:0E11E900C3E49FFFE49EFEE49DFDE49CFC2217
:1011F700EB9FF5F0EA9E42F0E99D42F0E89C45F04E
:0112070022C4
:10120800E493FC740193FD740293FE740393FF222C
:0C121800E0F8A3E0F9A3E0FAA3E0FB2259
:10122400E493F8740193F9740293FA740393FB2220
:10123400BB010DE58229F582E5833AF58302121894
:101244005007E92582F80212A1BBFE07E92582F8BE
:101254000212AEE58229F582E5833AF5830212246F
:0C126400ECF0A3EDF0A3EEF0A3EFF022FD
:10127000A8828583F0D083D082121287121287123F
:101280001287121287E473E493A3C583C5F0C58364
:10129000C8C582C8F0A3C583C5F0C583C8C582C8C8
:0112A000222B
:10228600021A8BE493A3F8E493A34003F68001F2C9
:1022960008DFF48029E493A3F85407240CC8C33359
:1022A600C4540F4420C8834004F456800146F6DF28
:1022B600E4800B0102040810204080902569E47E2A
:1022C600019360BCA3FF543F30E509541FFEE4931D
:1022D600A360010ECF54C025E060A840B8E493A3E4
:1022E600FAE493A3F8E493A3C8C582C8CAC583CA0F
:1022F600F0A3C8C582C8CAC583CADFE9DEE780BEC7
:0125A1000039
:0D12A100E6FB08E6F908E6FA08E6CBF822BD
:0D12AE00E2FB08E2F908E2FA08E2CBF822C0
:00000001FF
