:10302000535443313546324B36305332205541529A
:10303000543120546573742050726772616D6D65F0
:04304000210D0A0054
:102F8D009000517440F0A37402F0A3122269000165
:102F9D00C2009000587401F0E4A3F0A304F0A3F074
:102FAD00E4A3F0A3F07B017A0079517F011224C6CE
:092FBD007BFF7A30792002308696
:100C7600000000000000000000000000000000006E
:100C8600000000000000000000000000000000005E
:100C960000000000000000000000000000000080CE
:100CA600C0C02020F0F0F8F8F8180C0C0C2CFCFC56
:100CB600FCFCFCBC9C0C68F8F8F8F0F0E060C0C0E6
:100CC600800000000000000000000000000000009E
:100CD600000000000000000000000000000000000E
:100CE60000000000000000000000000000000000FE
:100CF60000000000000000000000000000000000EE
:100D060000000000000000000000000000000000DD
:100D16000000000000000080E0F0B80C4EBFBFFFEE
:100D2600FFFEDCF8F5FFFFFFFFFFFFFFFFFFFF7F82
:100D36007F3F1F9F0FCFF3FBFFFFFFFDECD8FEFFAA
:100D4600FFFF3F1E8C98F0E08000000000000000CE
:100D5600000000000000000000000000000000008D
:100D6600000000000000000000000000000000007D
:100D7600000000000000000000000000000000006D
:100D8600000000000000000000000000000000005D
:100D960000000080F0FCFFFFFFFFFFFEFEFBFFFFF1
:100DA600FFFFFF7F7F7363630707070707070300DC
:100DB600000706060707074363737B7F3FFFFFFFB6
:100DC600FFFEFBF7DFFFFFFFFFFFFCF080000000E8
:100DD600000000000000000000000000000000000D
:100DE60000000000000000000000000000000000FD
:100DF60000000000000000000000000000000000ED
:100E060000000000000000000000000000000000DC
:100E16000000FCFF3F3F7FFFFFFFFFFFFFFFFFFFDD
:100E2600FFFFEFCF8E8C08000000000000020000DC
:100E3600000002000000000000088C8ECFE7FFFFD4
:100E4600FFFFFFFFFFFFFFFFFF3F3FBFFFF8000071
:100E5600000000000000000000000000000000008C
:100E6600000000000000000000000000000000007C
:100E7600000000000000000000000000000000006C
:100E8600000000000000000000000000000000005C
:100E960000001FFFFA5A4BFFFFFFFFFFFFFFFFFF98
:100EA600FEFDFDF9F9F9F3F2F6F4F4F4ECE000C016
:100EB6004000E0ECE4F4F0F2F6F9F9F9F9FDFCFE95
:100EC600FFFFFFFFFF7FFFFF9FA995D9FF0F0000E0
:100ED600000000000000000000000000000000000C
:100EE60000000000000000000000000000000000FC
:100EF60000000000000000000000000000000000EC
:100F060000000000000000000000000000000000DB
:100F1600000000010F3FFFE6B35F9FFBF7DFBF7FD7
:100F2600FFFFFFFFFFFFFFFFFFFFFFFFFFFFFFFECC
:100F3600FEFFFFFFFFFFFFFFFFFFFFFFFFFFFFFFBC
:100F46007FBFDFF7BB3F27FBE57D1D0701000000E4
:100F5600000000000000000000000000000000008B
:100F6600000000000000000000000000000000007B
:100F7600000000000000000000000000000000006B
:100F8600000000000000000000000000000000005B
:100F96000000000000000001030F1F3B3D63E39FBC
:100FA6008EED7B9FF77FFF7FFFFFFFFFFBF3FFFBCE
:100FB600F3F3F3FBFFFFFFFFFFFFFFB77FDB9D3E72
:100FC600E3CF6D381C0F070301000000000000008E
:100FD600000000000000000000000000000000000B
:100FE60000000000000000000000000000000000FB
:100FF60000000000000000000000000000000000EB
:1010060000000000000000000000000000000000DA
:1010160000000000000000000000000000000001C9
:1010260001030307060F0D1E1F1B1B1F3F3D3F310C
:10103600353F3F1D181B1F1C1C0F0F07060303011E
:101046000100000000000000000000000000000099
:10105600000000000000000000000000000000008A
:10106600000000000000000000000000000000007A
:10107600FFFFFFFFFFFFFFFFFFFFFFFFFFFFFFFF7A
:10108600FFFFFFFFFFFFFFFFFFFFFFFFFFFFFFFF6A
:10109600FFFFFFFFFFFFFFFFFFFFFFFFFFFFFFFF5A
:1010A600FFFFFFFFFFFFFFFFFFFFFFFFFFFFFFFF4A
:1010B600FFFFFFFFFFFFFFFFFFFFFFFFFFFFFFFF3A
:1010C600FFFFFFFFFFFFFFFFFFFFFFFFFFFFFFFF2A
:1010D600FFFFFFFFFFFFFFFFFFFFFFFFFFFFFFFF1A
:1010E600FFFFFFFFFFFFFFFFFFFFFFFFFFFFFFFF0A
:1010F600FFFFFFFFFFFFFFFFFFFFFFFFFFFFFFFFFA
:10110600FFFFFFFFFFFFFFFFFFFFFFFFFFFFFFFFE9
:10111600FFFFFFFFFFFFFFFFFFFFFFFFFFFFFFFFD9
:10112600FFFFFFFFCFC9FFC9C9FFC9C9F7C9C9FF7B
:10113600C9CDFFC9C9FFC9F7F7C9BFFFFFFFFFFF49
:10114600FFFFFFFFFFFFFFFFFFFFFFFFFFFFFFFFA9
:10115600FFFFFFFFFFFFFFFFFFFFFFFFFFFFFFFF99
:10116600FFFFFFFFFFFFFFFFFFFFFFFFFFFFFFFF89
:10117600FFFFFFFFFFFFFFFFFFFFFFFFFFFFFFFF79
:10118600FFFFFFFFFFFFFFFFFFFFFFFFFFFFFFFF69
:10119600FFFFFFFFFFFFFFFFFFFFFFFFFFFFFFFF59
:1011A600FFFFFEFF6C6CB36C6C9F6C6CFBFC7CFFF2
:1011B600FCFCFF7CFCFFFCFFFBFCFFFFFFFFFFFFCF
:1011C600FFFFFFFFFFFFFFFFFFFFFFFFFFFFFFFF29
:1011D600FFFFFFFFFFFFFFFFFFFFFFFFFFFFFFFF19
:1011E600FFFFFFFFFFFFFFFFFFFFFFFFFFFFFFFF09
:1011F600FFFFFFFFFFFFFFFFFFFFFFFFFFFFFFFFF9
:10120600FFFFFFFFFFFFFFFFFFFFFFFFFFFFFFFFE8
:10121600FFFFFFFFFFFFFFFFFFFFFFFFFFFFFFFFD8
:10122600FFFFBFFFB6B6F9B6B6EFB6B6F9B636CF1C
:101236003637D93737CF37DFFF3FFFFFFFFFFFFFD7
:10124600FFFFFFFFFFFFFFFFFFFFFFFFFFFFFFFFA8
:10125600FFFFFFFFFFFFFFFFFFFFFFFFFFFFFFFF98
:10126600FFFFFFFFFFFFFFFFFFFFFFFFFFFFFFFF88
:10127600FFFFFFFFFFFFFFFFFFFFFFFFFFFFFFFF78
:10128600FFFFFFFFFFFFFFFFFFFFFFFFFFFFFFFF68
:10129600FFFFFFFFFFFFFFFFFFFFFFFFFFFFFFFF58
:1012A600FFFFBFFFBFFF7F9FBFFFFFFFFFFFFFFFE8
:1012B600FFFFFCD393EF936C6C93EFEF9FFFFFFF61
:1012C600FFFFFFFFFFFFFFFFFFFFFFFFFFFFFFFF28
:1012D600FFFFFFFFFFFFFFFFFFFFFFFFFFFFFFFF18
:1012E600FFFFFFFFFFFFFFFFFFFFFFFFFFFFFFFF08
:1012F600FFFFFFFFFFFFFFFFFFFFFFFFFFFFFFFFF8
:10130600FFFFFFFFFFFFFFFFFFFFFFFFFFFFFFFFE7
:10131600FFFFFFFFFFFFFFFFFFFFFFFFFFFFFFCF07
:101326003FC9C9F7C9C93EC9C9F7E9FFFFFFFFFFB2
:10133600FFFF3FCFC9F7C9363EC9F7F7E9FFFFFF01
:10134600FFFFFFFFFFFFFFFFFFFFFFFFFFFFFFFFA7
:10135600FFFFFFFFFFFFFFFFFFFFFFFFFFFFFFFF97
:10136600FFFFFFFFFFFFFFFFFFFFFFFFFFFFFFFF87
:10137600FFFFFFFFFFFFFFFFFFFFFFFFFFFFFFFF77
:10138600FFFFFFFFFFFFFFFFFFFFFFFFFFFFFFFF67
:10139600FFFFFFFFFFFFFFFFFFFFFFFFFFFFFFFF57
:1013A600FFFCECFFECECBFEC6CF76C6C9F6C6CF329
:1013B6006C6C9FECECFFECFFFFFCFFFFFFFFFFFFF9
:1013C600FFFFFFFFFFFFFFFFFFFFFFFFFFFFFFFF27
:1013D600FFFFFFFFFFFFFFFFFFFFFFFFFFFFFFFF17
:1013E600FFFFFFFFFFFFFFFFFFFFFFFFFFFFFFFF07
:1013F600FFFFFFFFFFFFFFFFFFFFFFFFFFFFFFFFF7
:10140600FFFFFFFFFFFFFFFFFFFFFFFFFFFFFFFFE6
:10141600FFFFFFFFFFFFFFFFFFFFFFFFFFFFFFFFD6
:10142600FFFFFFFFFFFFFFFFFFFFFFFFFFFFFFFFC6
:10143600FFFFFFFFFFFFFFFFFFFFFFFFFFFFFFFFB6
:10144600FFFFFFFFFFFFFFFFFFFFFFFFFFFFFFFFA6
:10145600FFFFFFFFFFFFFFFFFFFFFFFFFFFFFFFF96
:10146600FFFFFFFFFFFFFFFFFFFFFFFFFFFFFFFF86
:102C25004100310041003C004100090041000A001B
:102C350041001700410036014100370141003801CC
:102C4500C100C101C102420000000041003500423F
:102C550000050000420032000042002F0000410044
:102C65003A0041003D0041003F0041004000410065
:102C75003E0041003B004100390041000400410095
:102C850016004100190041001A00410018004100DA
:102C95000800410003004100070041000200410017
:022CA5003400F9
:0B24C60090005EEBF0A3EAF0A3E9F049
:1024D100EF6401600302268190000B04F0E4A3F095
:1024E100A3F0A3F0A3F0A3F0A3F0A3F0A3F0A3F053
:1024F100A3F0FF7E147808E4F608DEFCE4FF7E1406
:1025010090001BE4F0A3DEFC7E0090005EE0FBA3E4
:10251100E0FAA3E0F9121FCAD394C040037F01225D
:1025210090000A121FE3B40104D2BC8002C2BC12A3
:102531001FCAFFE598543F4FF598EF64C06008EF5C
:10254100644060030225FB90005EE0FBA3E0FAA378
:10255100E0F990000212222D7F807E8D7D5B7C0050
:10256100122150900061EEF0A3EFF0E4FCFDFBFAC4
:102571007901F8D31221F050037F0222900061E02B
:10258100FEA3E0FFC3E49FFFE49E900061F0A3EF90
:10259100F090005EE0FBA3E0FAA3E0F990000112E5
:1025A1001FE3FD64017027C28E538EFE5389BF5312
:1025B10089CF438E40900061E0FAA3E0FBEAF58DFC
:1025C1008B8BC2AB5389BF538FFDD28E8065ED6477
:1025D100027024538EEF438E01538EF7438E049085
:1025E1000061E0FCA3E0FDECF5D68DD753AFFB53C2
:1025F1008EF7438E10803C7F022290005EE0FBA3A9
:10260100E0FAA3E0F9121FCAFF7013900008121F2D
:10261100E3B40105438E20801A538EDF8015EFB499
:102621008011900008121FE3B401054387808003E5
:1026310053877F90005EE0FBA3E0FAA3E0F99000EE
:1026410009121FE3B40104D2AC8002C2AC900007AE
:10265100121FE3B40104D29C8002C29C90000B12B1
:102661001FE354C0FFE5A2543F4FF5A290000C12A6
:102671001FE3B4010543971080035397EF7F0022B6
:022681007F03D5
:012683002234
:102FC60090000EA3E02408F8A60790000EE475F022
:102FD60001122099FEC3E5F09414EE94004007E434
:102FE60090000EF0A3F0900010E0700404F0D29967
:012FF60022B8
:10308600121FCAFF600C122FC6740129F9E43AFA1E
:0330960080EE22A7
:0300230002298827
:10298800C0E0C0F0C083C082C0D075D000C000C015
:1029980004C005C006C00730983DC298900015E0F5
:1029A8007035C3900012E09414900011E094004038
:1029B80004E4F0A3F0900011E475F0011220AFFEDA
:1029C800741B25F0F58274003EF583E599F09000BC
:1029D80013E4F0A37405F0309943C29990000EE017
:1029E800FEA3E0FF90000CE0FCA3E0FD6F7002EC9A
:1029F8006E602574082DF8E6F59990000CE475F0E2
:102A080001122099FEC3E5F09414EE9400400E9054
:102A1800000CE4F0A3F08005900010E4F0D007D09B
:102A280006D005D004D000D0D0D082D083D0F0D04A
:022A3800E0328A
:1030DD0043D10275D54075D4A243D10843AF202208
:10002600900043EFF0E0FF7401A807088002C33395
:10003600D8FCF59DEF24E0F5BC5397DFEF24E8F5F7
:10004600BC8005E5BC20E4097F0A7E001230998059
:10005600F2900043E024E0F5BCAFBD900005E4F06B
:10006600A3EFF0900005E0FEA3E07802C333CE33A1
:10007600CED8F9F0EE900005F0AFBEA3E02FF090D9
:100086000005E03400F0E4F5BDF5BEE0FEA3E0FFB8
:010096002247
:03009B00021476D6
:10147600C0E0C0F0C083C082C0D075D000C000C03C
:0D14860001C002C003C004C005C006C007BD
:10149300C2AF900001E004F07006900000E004F099
:1014A3007F04120026900032EEF0A3EFF09000329A
:1014B300E0FEA3E07802CEC313CE13D8F9FFC394A2
:1014C3000AEE94009000095004E4F080037401F0E4
:1014D300D3EF9464EE9400400FEF9496EE94005093
:1014E3000790000AE4F0800690000A7401F0D3EF3D
:1014F30094A0EE9400400FEF94C8EE940050079030
:101503000017E4F080069000177401F0900036E0B5
:10151300FFB4F004D2008002C200900037E0FEB4B2
:10152300F004D2018002C201900038E0FDB4F0045F
:10153300D2028002C202EF25E0FF900009E02F9063
:101543000036F0EE25E0FF90000AE02F900037F020
:10155300ED25E0FF900017E02F900038F020000603
:10156300200203021706122FF79000342000030213
:1015730016467401F0900002F0900007E4F090002A
:101583004704F0A37410F0E4FBFAFD7F40122AEA4B
:101593009000477401F0A37410F0E4FBFAFD7F3868
:1015A300122AEA9000477401F0A37410F0E4FBFAE6
:1015B300FD7F30122AEA7B2EE4FD7F28122DA390B3
:1015C30000477401F0A37410F0E4FBFAFD7F2012CE
:1015D3002AEA9000477401F0A37410F0E4FBFAFDCB
:1015E3007F18122AEA9000477401F0A37410F0E404
:1015F300FBFAFD7F10122AEA9000477401F0A374EE
:1016030010F0E4FBFAFD7F08122AEA90003AE4F0B6
:1016130090003DF090003FF0A3F090003EF090006A
:101623003BF0900004F0900016F0900019F0A3F046
:10163300900018F0900008F0900031F090003CF01A
:10164300021C03E4F0900007F090000204F0900005
:1016530047F0A37410F07B097A00E4FD7F40122A5F
:10166300EA9000477401F0A37410F07B097A00E458
:10167300FD7F38122AEA9000477401F0A37410F03A
:101683007B097A00E4FD7F30122AEA7B2EE4FD7F9A
:1016930028122DA39000477401F0A37410F07B0966
:1016A3007A00E4FD7F20122AEA9000477401F0A338
:1016B3007410F07B097A00E4FD7F18122AEA900087
:1016C300477401F0A37410F07B097A00E4FD7F10E6
:1016D300122AEA9000477401F0A37410F07B097A90
:1016E30000E4FD7F08122AEA90003A7409F09000A2
:1016F3003DF090003FF0A3F090003EF090003BF0EF
:10170300021C03900034E064016003021AE6300116
:101713000B900007E004F0900002E4F0900007E073
:10172300FFD39400404690003AE004F0E0640A706E
:101733003BF090003DE004F0E0640A702FF090006D
:101743003FE004F0E0640A7023F0A3E004F0E0B4A7
:101753000A1AE4F090003EE004F0E0B40A0EE4F06C
:1017630090003BE004F0E0B40A02E4F0EF640260AE
:1017730003021ADA900007E014F0900031E004F05D
:1017830090003CE004F0900031E0B404037401F0F5
:10179300900016E0FF90003DE0C39FFFE49400FE3D
:1017A3007C007D0A122032900004E0FD90003AE0B4
:1017B300C39DFDE49CCD2FFBED3EFA900019E0FFA5
:1017C30090003FE0C39FFFEC9400FE7D6412203243
:1017D300EF2BFBEE3AFA90001AE0FF900040E0C3D3
:1017E3009FFFEC9400FE7C037DE8122032EF2BFB7D
:1017F300EE3AFA900018E0FF90003EE0C39FFFE44A
:101803009400FE7C277D10122032EF2BFFEE3AFE70
:10181300C006C007900008E0FF90003BE0C39FFFB5
:10182300E49400FEE4FCFD7BA07A867901F81220A3
:10183300C5D0E02FFFD0E03E90002FF0A3EFF0A340
:10184300E025E0FDE4FBFF122EC0900031E025E02F
:10185300FD90003CE0FB7A009000477402F0A37413
:1018630010F0FF122AEA900031E025E0FD7B037FB0
:1018730020122EC0900031E025E0FDC00590002F1E
:10188300E0FEA3E0FFE4FCFD7BA07A867901F81279
:101893002F0FAB07AA069000477401F0A37410F052
:1018A300D0057F40122AEA900031E025E0FDC00513
:1018B30090002FE0FEA3E0FFE4FCFD7BA07A867995
:1018C30001F8122F0FAC00AD01AE02AF03E47B10A1
:1018D3007A27F9F8122F0FAB07AA06900047740175
:1018E300F0A37410F0D0057F48122AEA900031E08B
:1018F30025E0FDC00590002FE0FEA3E0FFE4FCFD22
:101903007BA07A867901F8122F0FAC00AD01AE02ED
:10191300AF03E47B107A27F9F8122F0FAC00AD0167
:10192300AE02AF03E47BE87A03F9F8122F0FAB079B
:10193300AA069000477401F0A37410F0D0057F50FD
:10194300122AEA900031E025E0FD7B2E7F58122D0C
:10195300A3900031E025E0FDC00590002FE0FEA339
:10196300E0FFE4FCFD7BA07A867901F8122F0FAC2F
:1019730000AD01AE02AF03E47B107A27F9F8122F12
:101983000FAC00AD01AE02AF03E47BE87A03F9F8D4
:10199300122F0FAC00AD01AE02AF03E47B64FAF982
:1019A300F8122F0FAB07AA069000477401F0A37437
:1019B30010F0D0057F60122AEA900031E025E0FDA7
:1019C300C00590002FE0FEA3E0FFE4FCFD7BA07ABE
:1019D300867901F8122F0FAC00AD01AE02AF03E41C
:1019E3007B107A27F9F8122F0FAC00AD01AE02AFCE
:1019F30003E47BE87A03F9F8122F0FAC00AD01AED4
:101A030002AF03E47B64FAF9F8122F0FAC00AD01C7
:101A1300AE02AF03E47B0AFAF9F8122F0FAB07AA61
:101A2300069000477401F0A37410F0D0057F68128C
:101A33002AEA900031E025E0FDC00590002FE0FE8A
:101A4300A3E0FFE4FCFD7BA07A867901F8122F0F57
:101A5300AC00AD01AE02AF03E47B107A27F9F812B4
:101A63002F0FAC00AD01AE02AF03E47BE87A03F9BC
:101A7300F8122F0FAC00AD01AE02AF03E47B64FAA2
:101A8300F9F8122F0FAC00AD01AE02AF03E47B0AED
:101A9300FAF9F8122F0F9000477401F0A37410F0B5
:101AA300D0057F70122AEA90003DE0900004F09088
:101AB300003AE0900016F090003FE0900019F0909B
:101AC3000040E090001AF090003EE0900018F09083
:101AD300003BE0900008F0900002E06003021C036A
:101AE300021B6A30010B900007E004F0900002E44F
:101AF300F0900007E0D394005003021C0390003AD7
:101B0300E014F0E0F470577409F090003DE014F035
:101B1300E0F4704A7409F090003FE014F0E0F470D0
:101B23003D7409F0A3E014F0E0F470327409F0900E
:101B3300003EE014F0E0B4FF257409F090003BE0B0
:101B430014F0E0B4FF1890003A7409F090003DF0EF
:101B530090003FF0A3F090003EF090003BF0900027
:101B630002E06003021C0390003AE0FB7A0090005D
:101B7300477401F0A37410F0E4FD7F40122AEA9049
:101B8300003DE0FB7A009000477401F0A37410F06D
:101B9300E4FD7F38122AEA90003FE0FB7A009000D0
:101BA300477401F0A37410F0E4FD7F30122AEA7B3E
:101BB3002EE4FD7F28122DA3900040E0FB7A0090D5
:101BC30000477401F0A37410F0E4FD7F20122AEAA9
:101BD30090003EE0FB7A009000477401F0A374107C
:101BE300F0E4FD7F18122AEA90003BE0FB7A0090B4
:101BF30000477401F0A37410F0E4FD7F10122AEA89
:021C0300D2AF5E
:101C0500D007D006D005D004D003D002D001D00033
:0B1C1500D0D0D082D083D0F0D0E032DD
:102D3400E490004FF0A3F0D2AFF591759220759511
:102D44008A7596FF75B10875B2FC75C91075CA30DD
:102D5400122A3A122FF7122FF79000547408F0A396
:102D640074FFF0A37410F0A37476F07B80E4FDFF8D
:102D7400122CB07FA07E0F1230AA122FF7E4FBFDB5
:102D84007F10122EC07B01E4FD7F20122EC07B0237
:0F2D9400E4FD7F30122EC0122F8D1230DD80FE35
:0630F60000007F03DFFE75
:0130FC0022B1
:10309900AD07AC061230F6ED1D70011C144C70F42E
:0130A9002204
:0830ED007F187E55DEFEDFFCBA
:0130F50022B8
:1030AA00AD07AC061230EDED1D70011C144C70F426
:0130BA0022F3
:10009E000000000000000000002F0000000007001C
:1000AE00070000147F147F1400242A7F2A12006296
:1000BE006408132300364955225000000503000042
:1000CE0000001C224100000041221C000014083ECA
:1000DE0008140008083E0808000000A06000000890
:1000EE0008080808000060600000002010080402E4
:1000FE00003E5149453E0000427F400000426151A2
:10010E004946002141454B31001814127F1000273B
:10011E0045454539003C4A494930000171090503FE
:10012E0000364949493600064949291E000036362F
:10013E000000000056360000000814224100001492
:10014E00141414140000412214080002015109066F
:10015E0000324959513E007C1211127C007F4949F0
:10016E004936003E41414122007F4141221C007F21
:10017E0049494941007F09090901003E4149497A2F
:10018E00007F0808087F0000417F410000204041A9
:10019E003F01007F08142241007F40404040007F15
:1001AE00020C027F007F0408107F003E4141413E59
:1001BE00007F09090906003E4151215E007F0919A1
:1001CE0029460046494949310001017F0101003F9E
:1001DE004040403F001F2040201F003F4038403F1E
:1001EE000063140814630007087008070061514982
:1001FE00454300007F41410000552A552A55000015
:10020E0041417F0000040201020400404040404092
:10021E00000001020400002054545478007F48442A
:10022E00443800384444442000384444487F003861
:10023E005454541800087E0901020018A4A4A47C8A
:10024E00007F080404780000447D40000040808454
:10025E007D00007F102844000000417F4000007C9C
:10026E0004180478007C08040478003844444438A8
:10027E0000FC242424180018242418FC007C0804F4
:10028E00040800485454542000043F444020003CCD
:10029E004040207C001C2040201C003C4030403C54
:1002AE00004428102844001CA0A0A07C00446454E4
:1002BE004C44141414141414000000000000000028
:1002CE000000000000000000000000F80000000028
:1002DE00000000333000000000100C06100C060069
:1002EE00000000000000000040C07840C0784000D0
:1002FE00043F04043F040400007088FC0830000032
:10030E00001820FF211E0000F008F000E018000089
:10031E0000211C031E211E0000F008887000000042
:10032E001E2123241927211010160E000000000094
:10033E000000000000000000000000E018040200B1
:10034E00000000071820400000020418E000000022
:10035E000040201807000000404080F08040400020
:10036E000202010F01020200000000F00000000076
:10037E000101011F0101010000000000000000004A
:10038E0080B07000000000000000000000000000BF
:10039E000001010101010101000000000000000048
:1003AE0000303000000000000000000080601804E3
:1003BE00006018060100000000E010080810E000C0
:1003CE00000F102020100F00001010F80000000089
:1003DE000020203F202000000070080808887000D0
:1003EE000030282422213000003008888848300050
:1003FE000018202020110E000000C02010F8000070
:10040E0000070424243F240000F808888808080008
:10041E000019212020110E0000E01088881800001D
:10042E00000F112020110E0000380808C8380800EF
:10043E000000003F0000000000708808088870006F
:10044E00001C222121221C0000E010080810E000F0
:10045E000000312222110F00000000C0C000000079
:10046E00000000303000000000000080000000009E
:10047E000000806000000000000080402010080096
:10048E00000102040810200040404040404040005F
:10049E00040404040404040000081020408000003A
:1004AE000020100804020100007048080808F0003F
:1004BE000000003036010000C030C828E810E0000F
:1004CE000718272423140B000000C038E00000009A
:1004DE00203C23020227382008F888888870000004
:1004EE00203F202020110E00C030080808083800D8
:1004FE00071820202010080008F808080810E0004F
:10050E00203F202020100F0008F88888E8081000EF
:10051E00203F20202320180008F88888E8081000C3
:10052E00203F200003000000C030080808380000FB
:10053E0007182020221E020008F808000008F808FC
:10054E00203F210101213F20000808F80808000083
:10055E000020203F2020000000000808F8080800B6
:10056E00C08080807F00000008F888C0281808002E
:10057E00203F20012638200008F808000000000067
:10058E00203F20202020300008F8F800F8F808005E
:10059E00203F003F003F200008F830C00008F80858
:1005AE00203F200007183F00E01008080810E00068
:1005BE000F10202020100F0008F808080808F0007F
:1005CE00203F210101010000E01008080810E000A2
:1005DE000F18242438504F0008F888888888700037
:1005EE00203F2000030C30200070880808083800D7
:1005FE000038202121221C00180808F808081800CD
:10060E000000203F2000000008F808000008F8084D
:10061E00001F202020201F000878880000C83808FE
:10062E00000007380E010000F80800F80008F80076
:10063E00033C0700073C0300081868808068180810
:10064E0020302C03032C30200838C800C83808008E
:10065E000000203F2000000010080808C8380800DD
:10066E002038262120201800000000FE0202020081
:10067E000000007F40404000000C30C00000000031
:10068E00000000010638C00000020202FE00000059
:10069E00004040407F0000000000040202020400FF
:1006AE00000000000000000000000000000000003C
:1006BE008080808080808080000202040000000024
:1006CE00000000000000000000008080808000001C
:1006DE000019242222223F2008F80080800000000A
:1006EE00003F112020110E000000008080800000CD
:1006FE00000E112020201100000000808088F800DC
:10070E00000E112020103F2000008080808000000D
:10071E00001F222222221300008080F08888881871
:10072E000020203F2020000000008080808080007C
:10073E00006B94949493600008F800808080000011
:10074E00203F210000203F200080989800000000EC
:10075E000020203F2020000000000080989800001C
:10076E0000C08080807F000008F80000808080003C
:10077E00203F24022D302000000808F80000000061
:10078E000020203F2020000080808080808080001C
:10079E00203F20003F20003F8080008080800000AE
:1007AE00203F210000203F2000008080808000003C
:1007BE00001F202020201F0080800080800000006D
:1007CE0080FFA12020110E0000000080808080009C
:1007DE00000E112020A0FF8080808000808080008D
:1007EE0020203F21200001000000808080808000BA
:1007FE000033242424241900008080E0808000002F
:10080E000000001F2020000080800000008080007B
:10081E00001F202020103F208080800000808080DC
:10082E0000010E300806010080800080008080806C
:10083E000F300C030C300F00008080008080800091
:10084E000020312E0E3120008080800000808080BC
:10085E0080818E701806010000808080808080006C
:10086E000021302C2221300000000000807C02028A
:10087E0000000000003F404000000000FF000000AC
:10088E0000000000FF0000000002027C800000005B
:10089E000040403F00000000000601010202040477
:1008AE000000000000000000100894979C9694F839
:1008BE0097949C94F60400000000000000000000D5
:1008CE0000000000000000000040472424140CFF2C
:1008DE0004042444443E0400000000000000000014
:1008EE000000000000000000000484848484FC8466
:1008FE00848484C486840000000000000000000090
:10090E00000000000000000040404040784740409A
:10091E004040407F406040000000000000000000AA
:10092E0000000000000000002030AC63201000FC2E
:10093E0044444444FE040000000000000000000097
:10094E000000000000000000226722121252407FB9
:10095E00444444447F40400000000000000000007A
:10096E00000000000000000000000020109CA744C2
:10097E004424140C000000000000000000000000E1
:10098E00000000000000000002020201FF4242428D
:10099E0042424242FF020000000000000000000040
:1009AE000000000000000000808080808080808039
:1009BE008080808080C08000000000000000000069
:1009CE000000000000000000000000000000000019
:1009DE000000000000000000000000000000000009
:1009EE00000000000000000040301196909091969B
:1009FE00909098141350300000000000000000008A
:100A0E000000000000000000040404040444847E7E
:100A1E0006050404040404000000000000000000A9
:100A2E0000000000000000008040301E101010FF7B
:100A3E001010101010100000000000000000000048
:100A4E000000000000000000404042424242427F4F
:100A5E0042424242424040000000000000000000BE
:100A6E000000000000000000403C10FF101020109D
:100A7E008F7808F808F80000000000000000000061
:100A8E000000000000000000020602FF0101044207
:100A9E0021184681403F00000000000000000000C9
:100AAE000000000000000000100C04841464050611
:100ABE00F404040404140C00000000000000000004
:100ACE000000000000000000048484444724140C3D
:100ADE00070C1424448404000000000000000000F1
:100AEE00000000000000000002FA8282FE8040201A
:100AFE00504C434C5020400000000000000000000D
:100B0E00000000000000000008184884443F4044E4
:100B1E0058414E60584740000000000000000000A1
:100B2E00000000000000000020A4A4A4FFA4B4282C
:100B3E0084708F0808F80800000000000000000014
:100B4E000000000000000000040A49887E050484AD
:100B5E004020130C33408000000000000000000015
:100B6E000000000000000000403011969090919619
:100B7E009090981413503000000000000000000008
:100B8E000000000000000000040404040444847EFD
:100B9E000605040404040400000000000000000028
:100BAE0000000000000000000000F010101010FF08
:100BBE0010101010F00000000000000000000000F7
:100BCE00000000000000000000000F04040404FFF9
:100BDE00040404040F0000000000000000000000E8
:100BEE0000000000000000000000800000E0020491
:100BFE00180000004080000000000000000000000F
:100C0E000000000000000000100C0300003F4040F8
:100C1E004040407800010E0000000000000000007F
:100C2E000000000000000000F8FEFEFFFFFFFEFCCB
:100C3E00FCFEFEFFFFFEFEF80000000000000000BC
:100C4E0000000000000000000001070F0F1F3F7F93
:100C5E007F3F1F0F0F070100000000000000000083
:080C6E0000000000000000007E
:082CA7004100801F4100811F64
:102F5300F583E5822CF582E43583F583E493FF7DE5
:012F6300016C
:102F6400ED6004D2B58002C2B5C2B4E4FEC2A0EFE3
:102F740030E704D2B78002C2B7D2A0EF25E0FF0E3B
:082F8400EEB408E9D2B4D2B5A5
:012F8C002222
:102A3A00D2B67F647E001230AAC2B67F647E0012CC
:102A4A0030AAD2B6E4FD7FAE122F64E4FF122F64DF
:102A5A007F10122F647F40122F647F81122F647FB0
:102A6A00CF122F647FA1122F647FC8122F647FA612
:102A7A00122F647FA8122F647F3F122F647FD31214
:102A8A002F64E4FF122F647FD5122F647F80122FE8
:102A9A00647FD9122F647FF1122F647FDA122F64B8
:102AAA007F12122F647FDB122F647F40122F647F04
:102ABA0020122F647F02122F647F8D122F647F14DD
:102ACA00122F647FA4122F647FA6122F647FAF1285
:102ADA002F647FAF122F64122FF7E4FDFF02000369
:10000300AC07ED24B0FFE4FD122F64EC54F0C454AC
:100013000F4410FF122F64EC540F4401FF022F64AE
:1030BB00E4FD7F8D122F647F14122F647FAF022FDC
:0130CB0064A0
:1030CC00E4FD7F8D122F647F10122F647FAE022FD0
:0130DC00648F
:102FF700E4FCEC24B0FFE4FD122F64E4FF122F641D
:103007007F10122F64E4FB7D01E4FF122F640BEBAA
:08301700B480F40CECB408DAFB
:01301F00228E
:0730680090004CEFF0A905F8
:10306F007F017E00AD0119ED600C90004CE0FD7CFE
:06307F000012203280EE79
:013085002228
:062DA300AA07A905AF0319
:102DA900E4FCEF24E0FBEAD3947F4004E4FA090948
:102DB900AF02AD01120003E4FC75F010EBA42CF591
:102DC90082E435F0F583E58224C6F582E583340291
:102DD900122F5D0CECB408E1AF02E904FD12000307
:102DE900E4FC75F010EBA42CF582E435F0F583E5ED
:102DF9008224CEF582E5833402122F5D0CECB408EF
:022E0900E122C4
:0E2AEA00900043EFF0A3EDF0A3EAF0A3EBF0B1
:102AF800E490004BF0900049F0900047E0FF900010
:102B080049E0FEC39F4003022B98C3EF9E14FD7F4C
:102B18000A123068900045E0FCA3E0FDCFCDCFCE8F
:102B2800CCCE1220447C007D0A12204490004AED4D
:102B3800F0A3E07030900047E014FF900049E0FEF9
:102B4800C39F5021A3E07017900048E0C3138EF094
:102B5800A4FF900043E02FFFA3E0FD7B2080259099
:102B6800004B7401F0900048E0C313FFA3E0FEEFB0
:102B78008EF0A4FF900043E02FFFA3E0FD90004AF1
:102B8800E02430FB122DA3900049E004F0022B0151
:012B9800221A
:102E6C00900074EFF0A3EDF0A3EBF0A3EAF0A3E96C
:012E7C00F065
:102E7D00E4A3F0900076E0FBA3E0FAA3E0F9A3E071
:102E8D00F582758300121FE3FB6027900074E0FF4D
:102E9D00A3E0FD122DA3900074E02408F0E0D3947C
:102EAD00784007E4F0A3E02402F0900079E004F00C
:022EBD0080C1D2
:012EBF0022F0
:042EC000A907AA05AF
:102EC400E4900051F0120003E4FC75F040EBA424FC
:102ED400B6F582E5F03408122F53900051E004F067
:102EE4000CECB410E5AF01EA04FD120003E4FC7538
:102EF400F040EBA424D6F582E5F03408122F539069
:0A2F04000051E004F00CECB410E5FD
:012F0E0022A0
:0A2CB000900051EFF0900053EBF09C
:102CBA00E4900058F0A3F0900054E0FF5407700825
:102CCA00EF131313541F800A900054E01313135484
:102CDA001F0490005AF090005AEDF0900054E0FF63
:102CEA0090005AE0FDC39F5040900051E0FF12004F
:102CFA0003E0FC900053E0FFECC39F502490005582
:102D0A00E0FBA3E0FAA3E0F9A3E475F0011220AF17
:102D1A0085F082F583121FE3FF7D01122F640C8078
:092D2A00D290005AE004F080B2DE
:012D3300227D
:06304400131313541FFDDD
:10304A00AC07ED24B0FFE4FD122F64EC54F0C45435
:0E305A000F4410FF122F64EC540FFF022F647E
:10280C00FFA3E004FD900067E0F9A3E0FAA3E090D9
:0C281C00006FC9F0A3EAF0A3E9F07B0113
:0D28280090006DEDF0A3EBF090006CEFF070
:10283500E4900072F0A3F090006DE0FE1230449039
:10284500006CE0FFA3E0FD131313541F75F080A483
:102855002FF582E435F0F583C083C08290006FE0E8
:10286500FBA3E0FAA3E0F9D082D083121FE3FE9028
:10287500006EE0705BED5407B40800400302292D9B
:1028850090288CF82828730228A40228AB0228B1C6
:102895000228B70228BD0228C30228C90228CFEEA4
:1028A50054FEFE02292DEE54FDFE807CEE54FBFE07
:1028B5008076EE54F7FE8070EE54EFFE806AEE549B
:1028C500DFFE8064EE54BFFE805EEE547FFE8058CE
:1028D50090006DE05407B40800504D9028E7F828A3
:1028E50028730228FF02290502290B022911022952
:1028F5001702291D022923022929EE4401FE8028F9
:10290500EE4402FE8022EE4404FE801CEE4408FEE6
:102915008016EE4410FE8010EE4420FE800AEE4440
:1029250040FE8004EE4480FEAF0690006CE0FEA3FE
:10293500E0131313541FFD75F080A42EF582E435C2
:10294500F0F583C083C08290006FE0FBA3E0FAA39B
:10295500E0F9D082D083EF12201075F080EDA42E1F
:10296500F582E435F0F583C083C08290006FE0FB0B
:10297500A3E0FAA3E0F9D082D083121FE3FF7D0123
:03298500022F64BA
:042E0B00AA05A90368
:102E0F00E490007EF0A3F0FBEA123044E9700280F8
:102E1F0045EA5407B40800503D902E2FF828287328
:102E2F00022E47022E4B022E4F022E53022E570216
:102E3F002E5B022E5F022E637B01801A7B028016AF
:102E4F007B0480127B08800E7B10800A7B2080061B
:0D2E5F007B4080027B80AF037D01022F6469
:1022B40090006312225D900067EBF0A3EAF0A3E9BB
:0122C400F029
:1022C500900080E0FFA3E0122810900080E004FF5A
:1022D500A3E0122810900080E00412280C900080E2
:1022E500E004FFA3E014122810900080E014FFA37F
:1022F500E0122810900080E01412280C900080E075
:1023050014FFA3E014122810900080E012280C900E
:102315000080E0FFA3E014122810900063E0FCA306
:10232500E0FDA3E0FEA3E0FF1226CCE4FBFA79A0D2
:102335007841121D18E4FBFA79F87841121C27122E
:102345001E1E90006AEFF0900063E0FCA3E0FDA381
:10235500E0FEA3E0FF1226E2E4FBFA79A078411241
:102365001D18E4FBFA79F87841121C27121E1E90FD
:10237500006BEFF0FD90006AE0FF900067E0F9A3C5
:10238500E0FAA3E090006FC9F0A3EAF0A3E9F0E456
:10239500FB12282890006AE004FFA3E0FD90006787
:1023A500E0F9A3E0FAA3E090006FC9F0A3EAF0A377
:1023B500E9F0E4FB12282890006AE004FFA3E0049A
:1023C500FD900067E0F9A3E0FAA3E090006FC9F083
:1023D500A3EAF0A3E9F0E4FB12282890006AE004E0
:1023E500FFA3E014FD900067E0F9A3E0FAA3E090F5
:1023F500006FC9F0A3EAF0A3E9F0E4FB12282890E6
:10240500006AE014FFA3E0FD900067E0F9A3E0FA9D
:10241500A3E090006FC9F0A3EAF0A3E9F0E4FB1292
:10242500282890006AE014FFA3E004FD900067E00F
:10243500F9A3E0FAA3E090006FC9F0A3EAF0A3E9DD
:10244500F0E4FB12282890006AE014FFA3E014FDD5
:10245500900067E0F9A3E0FAA3E090006FC9F0A34C
:10246500EAF0A3E9F0E4FB12282890006AE0FFA354
:10247500E004FD900067E0F9A3E0FAA3E090006FA7
:10248500C9F0A3EAF0A3E9F0E4FB12282890006A5A
:10249500E0FFA3E014FD900067E0F9A3E0FAA3E0F4
:1024A50090006FC9F0A3EAF0A3E9F0E4FB12282835
:1024B50090006AE0900080F090006BE0900081F061
:0124C50022F4
:101C2000021E8AE86480F8E933E83360110460F04A
:101C3000ED33EC337009E8FCE9FDEAFEEBFF22042A
:101C400060DED3EB9FEA9EE99DE8C2E78CF0C2F725
:101C500095F0400CE8CCF8E9CDF9EACEFAEBCFFBF1
:101C6000121E5585D0F05804700320D5B3E80470D7
:101C7000075002B2D5021E9492D5EC0460F7E4CC72
:101C8000C0E0C398F8603B94186008400DD0E0FBBA
:101C9000021E6CE4FBFAC9FC8028E830E406E4C9C3
:101CA000FBE4CAFCE830E305E4C9CACBFCE854070E
:101CB0006010F8C3E913F9EA13FAEB13FBEC13FC19
:101CC000D8F130F52FC3E49CFCEF9BFFEE9AFEEDBC
:101CD00099FDD0E0FBEF4E4D4C701222DB03021E4B
:101CE00091EC2CFCEF33FFEE33FEED33FDED30E7EE
:101CF000EB021E6CEF2BFFEE3AFEED39FDD0E0FB60
:101D000050130BBB0003021E94ED13FDEE13FEEF08
:081D100013FFEC13FC021E6C32
:101D1800EC4D6011E8497017ED33EC3304600DE4C5
:101D2800FCFFFEFD22E933E8330470F8021E8A1234
:101D38001E5558046009E4CC248150062850090235
:101D48001E94284003021E91C0E0EB4A7044B980FB
:101D580006D0E0FB021E80EF4E701CBD8008EBFF32
:101D6800EAFEE9FD80EBE98DF0A4FEE5F0021E0134
:101D7800E9CDF9EAFEEBFFEF89F0A4FCE5F0CE89A6
:101D8800F0A42EFFE435F0CD89F0A42DFEE435F063
:101D98008067EF4E7005BD80D780C3EF8BF0A4AC91
:101DA800F0EE8BF0A42CFCE435F0F8EF8AF0A42CCC
:101DB800E5F038FCE433CB8DF0A42CFCE5F03BF8DF
:101DC800EE8AF0A42CFCE5F038F8E433CF89F0A4CF
:101DD8002CFCE5F038CF3400CE89F0A42FFFE5F0D5
:101DE8003EFEE433C98DF0A42EFEE5F039CD8AF02D
:101DF800A42FFFE5F03EFEE43DFD33D0E0FB5007A5
:101E08000BBB000F021E94EC2CFCEF33FFEE33FEED
:061E1800ED33FD021E6C1B
:101E1E00EDD2E7CD33EC3392D524814006E4FFFEBC
:101E2E00FDFC22FCE4CFCECDCC24E0501174FF801B
:101E3E00EDC3CC13CCCD13CDCE13CECF13CF0470B8
:071E4E00F030D5DE0221E2B5
:102684003A70FA83BCAAE9E43E81E0F8BF9DE9E62A
:102694003F80000039283C1ABB9969663DA335E3A5
:1026A400BF255DE73FC90FDB418DDBCCC44936EE66
:1026B40045C9913FC5B0F83D3F800000C317F534CC
:1026C400452FFA73C60AFDDD12278D04A2E1920399
:1026D4001420E0159026847404121F7D8030122784
:1026E4008D30E102B20320E0EBA883A98290007A46
:1026F40012225D898288839026987404121F7D8536
:1027040082F090007A12221185F082121D18ED4C8D
:102714006007300304EC6480FC2212278DC0E0A81B
:1027240083A98290007A12225D898288839026BCD4
:102734007403121F7D8582F090007A12221185F0B5
:1027440082121D1890007AE0CCF0A3E0CDF0A3E053
:10275400CEF0A3E0CFF09026AC7403121F7DD0829C
:102764008582F090007A12221185F082E58230E0B1
:1027740007121EA2B2038096EFCBFFEECAFEEDC98C
:10278400FDECC8FC121EA28085ED33EC547FCC33E3
:10279400920324605007D0E0D0E0021E8A7B837A43
:1027A400F97922783E121D18EDF933ECF8332481BF
:1027B4005011EFFBEEFA121E1E121F3FECB2E7FCA3
:1027C400121C27ED33EC33602F2403F8C313FCED04
:1027D40092E7FDE82481E4501FECF8EDF9EEFAEFFE
:1027E400FB121E1EEF04C2E0FCF582121F49ECB27C
:1027F400E7FC121C27E58203FAED33EC336007147F
:0828040013FCED92E7FDEA224E
:101E5500E9D2E7C933E833F892D5EDD2E7CD33ECD3
:071E650033FC5002B2D5224C
:101E6C00EC30E7100FBF000C0EBE00080DBD0004D7
:101E7C000BEB6014A2D5EB13FCED92E7FD2274FF83
:101E8C00FCFDFEFF22E480F8A2D574FF13FC7D80DC
:031E9C00E480EFF0
:101E9F00021E94EC5D046005E859047003021E8A6B
:101EAF00121E55580460F6EC4860F2EC7004FDFE0B
:101EBF00FF22C860DB2481C85009C3986002500616
:101ECF00021E919850CAF582E9294B4A7005AB82E0
:101EDF00021E8075F0007C1A7880C3EF9BEE9AED9E
:101EEF0099400DC3EF9BFFEE9AFEED99FDE842F08E
:101EFF00DC23ACF0D0E0FFD0E0FED0E0FDAB8220E1
:101F0F00E7101BEB60BAEC2CFCEF33FFEE33FEED6A
:101F1F0033FD021E6CE803F830E705C0F075F000E2
:101F2F00EF2FFFEE33FEED33FD40B830E7C280AA4E
:101F3F0075F020800E75F010800575F0087D007E1D
:101F4F00007F003392D530D5031221E2EC334010DD
:101F5F00EF33FFEE33FEED33FDEC33FCD5F0ED2226
:0E1F6F00E5F0247EA2D513CC92E7CDCEFF2262
:101F7D00C0E0EFFBEEFAEDF9ECF8121D18D0E0F52C
:101F8D00F0EFFBEEFAEDF9ECF8122201A3A3A3A3F7
:101F9D00E8C0E0E9C0E0EAC0E0EBC0E0C0F0121D2F
:101FAD001812221DA3A3A3A3121C27D0F0D0E0FB6F
:0D1FBD00D0E0FAD0E0F9D0E0F8D5F0D42261
:03000000022B9937
:0C2B9900787FE4F6D8FD758120022BE067
:101FCA00BB010689828A83E0225002E722BBFE0215
:091FDA00E32289828A83E4932248
:101FE300BB010CE58229F582E5833AF583E02250B3
:101FF30006E92582F8E622BBFE06E92582F8E222FD
:0D200300E58229F582E5833AF583E4932216
:10201000F8BB010DE58229F582E5833AF583E8F006
:10202000225006E92582C8F622BBFE05E92582C8B2
:02203000F2229A
:10203200EF8DF0A4A8F0CF8CF0A428CE8DF0A42EC2
:02204200FE227C
:10204400BC000BBE0029EF8DF084FFADF022E4CC80
:10205400F875F008EF2FFFEE33FEEC33FCEE9DEC49
:10206400984005FCEE9DFE0FD5F0E9E4CEFD22ED8F
:10207400F8F5F0EE8420D21CFEADF075F008EF2FD9
:10208400FFED33FD4007985006D5F0F222C398FDCA
:052094000FD5F0EA2267
:10209900C5F0F8A3E028F0C5F0F8E58215827002D2
:0620A9001583E038F0226F
:1020AF00A3F8E0C5F025F0F0E582158270021583E4
:0620BF00E0C838F0E82241
:1020C500E88FF0A4CC8BF0A42CFCE98EF0A42CFCBA
:1020D5008AF0EDA42CFCEA8EF0A4CDA8F08BF0A438
:1020E5002DCC3825F0FDE98FF0A42CCD35F0FCEB97
:1020F5008EF0A4FEA9F0EB8FF0A4CFC5F02ECD395C
:0F210500FEE43CFCEAA42DCE35F0FDE43CFC22C8
:1021140075F008758200EF2FFFEE33FECD33CDCC82
:1021240033CCC58233C5829BED9AEC99E582984005
:102134000CF582EE9BFEED9AFDEC99FC0FD5F0D6E2
:10214400E4CEFBE4CDFAE4CCF9A88222B800C1B90C
:102154000059BA002DEC8BF084CFCECDFCE5F0CB4A
:10216400F97818EF2FFFEE33FEED33FDEC33FCEB83
:1021740033FB10D703994004EB99FB0FD8E5E4F93E
:10218400FA227818EF2FFFEE33FEED33FDEC33FC2B
:10219400C933C910D7059BE99A4007EC9BFCE99A1F
:1021A400F90FD8E0E4C9FAE4CCFB2275F010EF2F64
:1021B400FFEE33FEED33FDCC33CCC833C810D70764
:1021C4009BEC9AE899400AED9BFDEC9AFCE899F89F
:0E21D4000FD5F0DAE4CDFBE4CCFAE4C8F92232
:102F0F00C2D5E830E70FB2D5E4C39BFBE49AFAE4ED
:102F1F0099F9E498F8EC30E717B2D5122F45122142
:102F2F0050E4C39BFBE49AFAE499F9E498F8800320
:102F3F0012215030D50DE4C39FFFE49EFEE49DFDAA
:042F4F00E49CFC22E0
:0E21E200C3E49FFFE49EFEE49DFDE49CFC220E
:1021F000EB9FF5F0EA9E42F0E99D42F0E89C45F045
:0122000022BB
:10220100E493FC740193FD740293FE740393FF2223
:0C221100E0F8A3E0F9A3E0FAA3E0FB2250
:10221D00E493F8740193F9740293FA740393FB2217
:10222D00BB010DE58229F582E5833AF58302221182
:10223D005007E92582F802229ABBFE07E92582F8AC
:10224D000222A7E58229F582E5833AF58302221D54
:0C225D00ECF0A3EDF0A3EEF0A3EFF022F4
:10226900A8828583F0D083D0821222801222801224
:102279002280122280E473E493A3C583C5F0C58349
:10228900C8C582C8F0A3C583C5F0C583C8C582C8BF
:012299002222
:102BA500022D34E493A3F8E493A34003F68001F2E5
:102BB50008DFF48029E493A3F85407240CC8C33331
:102BC500C4540F4420C8834004F456800146F6DF00
:102BD500E4800B0102040810204080902C25E47E3F
:102BE500019360BCA3FF543F30E509541FFEE493F5
:102BF500A360010ECF54C025E060A840B8E493A3BC
:102C0500FAE493A3F8E493A3C8C582C8CAC583CAE6
:102C1500F0A3C8C582C8CAC583CADFE9DEE780BE9E
:012CAF000024
:0D229A00E6FB08E6F908E6FA08E6CBF822B4
:0D22A700E2FB08E2F908E2FA08E2CBF822B7
:00000001FF
