:10294100535443313546324B363053322055415280
:10295100543120546573742050726772616D6D65D6
:04296100210D0A003A
:1028AE009004617440F0A37402F0A3121270000140
:1028BE00C2009004687401F0E4A3F0A304F0A3F046
:1028CE00E4A3F0A3F07B017A0479617F01121D234A
:0928DE007BFF7A2979410229A748
:10171100FFFFFFFFFFFFFFFFFFFFFFFFFFFFFFFFD8
:10172100FFFFFFFFFFFFFFFFFFFFFFFFFFFFFFFFC8
:10173100FFFFFFFFFFFFFFFFFFFFFFFFFFFFFFFFB8
:10174100FFFFFFFFFFFFFFFFFFFFFFFFFFFFFFFFA8
:10175100FFFFFFFFFFFFFFFFFFFFFFFFFFFFFFFF98
:10176100FFFFFFFFFFFFFFFFFFFFFFFFFFFFFFFF88
:10177100FFFFFFFFFFFFFFFFFFFFFFFFFFFFFFFF78
:10178100FFFFFFFFFFFFFFFFFFFFFFFFFFFFFFFF68
:10179100FFFFFFFFFFFFFFFFFFFFFFFFFFFFFFFF58
:1017A100FFFFFFFFFFFFFFFFFFFFFFFFFFFFFFFF48
:1017B100FFFFFFFFFFFFFFFFFFFFFFFFFFFFFFFF38
:1017C100FFFFFFFFCFC9FFC9C9FFC9C9F7C9C9FFDA
:1017D100C9CDFFC9C9FFC9F7F7C9BFFFFFFFFFFFA8
:1017E100FFFFFFFFFFFFFFFFFFFFFFFFFFFFFFFF08
:1017F100FFFFFFFFFFFFFFFFFFFFFFFFFFFFFFFFF8
:10180100FFFFFFFFFFFFFFFFFFFFFFFFFFFFFFFFE7
:10181100FFFFFFFFFFFFFFFFFFFFFFFFFFFFFFFFD7
:10182100FFFFFFFFFFFFFFFFFFFFFFFFFFFFFFFFC7
:10183100FFFFFFFFFFFFFFFFFFFFFFFFFFFFFFFFB7
:10184100FFFFFEFF6C6CB36C6C9F6C6CFBFC7CFF50
:10185100FCFCFF7CFCFFFCFFFBFCFFFFFFFFFFFF2D
:10186100FFFFFFFFFFFFFFFFFFFFFFFFFFFFFFFF87
:10187100FFFFFFFFFFFFFFFFFFFFFFFFFFFFFFFF77
:10188100FFFFFFFFFFFFFFFFFFFFFFFFFFFFFFFF67
:10189100FFFFFFFFFFFFFFFFFFFFFFFFFFFFFFFF57
:1018A100FFFFFFFFFFFFFFFFFFFFFFFFFFFFFFFF47
:1018B100FFFFFFFFFFFFFFFFFFFFFFFFFFFFFFFF37
:1018C100FFFFBFFFB6B6F9B6B6EFB6B6F9B636CF7B
:1018D1003637D93737CF37DFFF3FFFFFFFFFFFFF36
:1018E100FFFFFFFFFFFFFFFFFFFFFFFFFFFFFFFF07
:1018F100FFFFFFFFFFFFFFFFFFFFFFFFFFFFFFFFF7
:10190100FFFFFFFFFFFFFFFFFFFFFFFFFFFFFFFFE6
:10191100FFFFFFFFFFFFFFFFFFFFFFFFFFFFFFFFD6
:10192100FFFFFFFFFFFFFFFFFFFFFFFFFFFFFFFFC6
:10193100FFFFFFFFFFFFFFFFFFFFFFFFFFFFFFFFB6
:10194100FFFFBFFFBFFF7F9FBFFFFFFFFFFFFFFF46
:10195100FFFFFCD393EF936C6C93EFEF9FFFFFFFBF
:10196100FFFFFFFFFFFFFFFFFFFFFFFFFFFFFFFF86
:10197100FFFFFFFFFFFFFFFFFFFFFFFFFFFFFFFF76
:10198100FFFFFFFFFFFFFFFFFFFFFFFFFFFFFFFF66
:10199100FFFFFFFFFFFFFFFFFFFFFFFFFFFFFFFF56
:1019A100FFFFFFFFFFFFFFFFFFFFFFFFFFFFFFFF46
:1019B100FFFFFFFFFFFFFFFFFFFFFFFFFFFFFFCF66
:1019C1003FC9C9F7C9C93EC9C9F7E9FFFFFFFFFF11
:1019D100FFFF3FCFC9F7C9363EC9F7F7E9FFFFFF60
:1019E100FFFFFFFFFFFFFFFFFFFFFFFFFFFFFFFF06
:1019F100FFFFFFFFFFFFFFFFFFFFFFFFFFFFFFFFF6
:101A0100FFFFFFFFFFFFFFFFFFFFFFFFFFFFFFFFE5
:101A1100FFFFFFFFFFFFFFFFFFFFFFFFFFFFFFFFD5
:101A2100FFFFFFFFFFFFFFFFFFFFFFFFFFFFFFFFC5
:101A3100FFFFFFFFFFFFFFFFFFFFFFFFFFFFFFFFB5
:101A4100FFFCECFFECECBFEC6CF76C6C9F6C6CF387
:101A51006C6C9FECECFFECFFFFFCFFFFFFFFFFFF57
:101A6100FFFFFFFFFFFFFFFFFFFFFFFFFFFFFFFF85
:101A7100FFFFFFFFFFFFFFFFFFFFFFFFFFFFFFFF75
:101A8100FFFFFFFFFFFFFFFFFFFFFFFFFFFFFFFF65
:101A9100FFFFFFFFFFFFFFFFFFFFFFFFFFFFFFFF55
:101AA100FFFFFFFFFFFFFFFFFFFFFFFFFFFFFFFF45
:101AB100FFFFFFFFFFFFFFFFFFFFFFFFFFFFFFFF35
:101AC100FFFFFFFFFFFFFFFFFFFFFFFFFFFFFFFF25
:101AD100FFFFFFFFFFFFFFFFFFFFFFFFFFFFFFFF15
:101AE100FFFFFFFFFFFFFFFFFFFFFFFFFFFFFFFF05
:101AF100FFFFFFFFFFFFFFFFFFFFFFFFFFFFFFFFF5
:101B0100FFFFFFFFFFFFFFFFFFFFFFFFFFFFFFFFE4
:1012BB006400002700000000000000000000000098
:1012CB000000000000000000000000000000000013
:1012DB000000000000000000000000000000000003
:1012EB0000000000000000000000000000000000F3
:1012FB0000000000000000000000000000000000E3
:1016BB00000000004100050041000600410012003F
:1016CB004104450041042D0041042700410428003A
:1016DB0041042900420003000041042E0141042F64
:1016EB000141043001C100C101C1024100000041B0
:0D16FB00042C00420001000042042A0000FF
:0B1D230090046EEBF0A3EAF0A3E9F0DF
:101D2E00EF64016003021EDE90000704F0E4A3F0EE
:101D3E00A3F0A3F0A3F0A3F0A3F0A3F0A3F0A3F0FD
:101D4E00A3F0FF7E147808E4F608DEFCE4FF7E14B0
:101D5E00900013E4F0A3DEFC7E0090046EE0FBA383
:101D6E00E0FAA3E0F9121020D394C040037F0122C1
:101D7E0090000A121039B40104D2BC8002C2BC1207
:101D8E001020FFE598543F4FF598EF64C06008EFC0
:101D9E0064406003021E5890046EE0FBA3E0FAA3B9
:101DAE00E0F99000021212347F807E8D7D5B7C0004
:101DBE00121157900471EEF0A3EFF0E4FCFDFBFA64
:101DCE007901F8D31211F750037F0222900471E0CB
:101DDE00FEA3E0FFC3E49FFFE49E900471F0A3EF27
:101DEE00F090046EE0FBA3E0FAA3E0F9900001127C
:101DFE001039FD64017027C28E538EFE5389BF5376
:101E0E0089CF438E40900471E0FAA3E0FBEAF58D92
:101E1E008B8BC2AB5389BF538FFDD28E8065ED6421
:101E2E00027024538EEF438E01538EF7438E04902F
:101E3E000471E0FCA3E0FDECF5D68DD753AFFB5358
:101E4E008EF7438E10803C7F022290046EE0FBA33F
:101E5E00E0FAA3E0F9121020FF70139000081210A0
:101E6E0039B40105438E20801A538EDF8015EFB4EE
:101E7E008011900008121039B40105438780800349
:101E8E0053877F90046EE0FBA3E0FAA3E0F9900085
:101E9E0009121039B40104D2AC8002C2AC90000712
:101EAE00121039B40104D29C8002C29C90000B1215
:101EBE00103954C0FFE5A2543F4FF5A290000C120A
:101ECE001039B4010543971080035397EF7F00221A
:021EDE007F0380
:011EE00022DF
:1028E70090000AA3E02408F8A60790000AE475F010
:1028F700011210EFFEC3E5F09414EE94004007E4D4
:1029070090000AF0A3F090000CE0700404F0D29954
:01291700229D
:1029A700121020FF600C1228E7740129F9E43AFAA3
:0329B70080EE228D
:03002300022314A1
:10231400C0E0C0F0C083C082C0D075D000C000C08F
:0D23240001C002C003C004C005C006C00710
:10233100209803022412C298900011E06003022445
:102341001290000D75F001121105FE741325F0F5C0
:102351008274003EF583E599F090000DE07004A3CE
:10236100E06405600302241290000DF0A3F09000D8
:1023710014E024D075F00AA4FF900013E024D07576
:10238100F064A42FFF900015E024D02F900445F0B5
:10239100FD900016E075F00AA4FFA3E02F24F09051
:1023A100042DF0E0FF131313541F900429F0EF5490
:1023B10007900428F0A3E075F080A47C002DFEECCA
:1023C10035F0900003F0A3CEF0900428E0FF7401F3
:1023D100A807088002C333D8FCFF900427F09000BF
:1023E10003E0FCA3E02427F58274003CF583EFF0C1
:1023F1009004647408F0A37401F0A37400F0A37452
:1024010027F07B80E4FDFF1226187FA07E0F1229A2
:01241100CBFF
:10241200D007D006D005D004D003D002D001D0001E
:0B242200D0D0D082D083D0F0D0E032C8
:1029FE0043D10275D54075D4A243D10843AF2022EE
:10002600900453EFF0E0FF7401A807088002C33381
:10003600D8FCF59DEF24E0F5BC5397DFEF24E8F5F7
:10004600BC8005E5BC20E4097F0A7E001229BA803F
:10005600F2900453E024E0F5BCAFBD900001E4F05B
:10006600A3EFF0900001E0FEA3E07802C333CE33A5
:10007600CED8F9F0EE900001F0AFBEA3E02FF090DD
:100086000001E03400F0E4F5BDF5BEE0FEA3E0FFBC
:010096002247
:03009B000221E55A
:1021E500C0E0C0F0C083C082C0D075D000C000C0C0
:0D21F50001C002C003C004C005C006C00741
:10220200C2AF900000E004F0E0640A60030222F72B
:10221200F090042CE004F0E0B41404E4F0B2A57FE2
:102222000412002690042AEEF0A3EFF090042AE0B4
:10223200FEA3E07802CEC313CE13D8F9FFC3940AEB
:10224200EE94009000055004E4F080037401F0D392
:10225200EF9464EE9400400FEF9496EE94005007D2
:10226200900006E4F080069000067401F0D3EF942B
:10227200A0EE9400400FEF94C8EE94005007900037
:1022820012E4F080069000127401F090042EE0FF38
:10229200B4F004D2008002C20090042FE0FEB4F039
:1022A20004D2018002C201900430E0FDB4F004D2F5
:1022B200028002C202EF25E0FF900005E02F9004A9
:1022C2002EF0EE25E0FF900006E02F90042FF0EDB7
:1022D20025E0FF900012E02F900430F090042AE0F5
:1022E200FAA3E0FB9004577404F0A37410F07D0687
:0722F200E4FF1224DDD2AF6E
:1022F900D007D006D005D004D003D002D001D00039
:0B230900D0D0D082D083D0F0D0E032E2
:10269C00E490045FF0A3F0D2AFF59175922075959C
:1026AC008A7596FF75B10875B2FC75C91075CA307C
:1026BC0012242D1229181229189004647408F0A3FE
:1026CC0074FFF0A37417F0A37411F07B80E4FDFF8A
:1026DC001226187FA07E0F1229CB122918E4FBFDBD
:1026EC007F101228257B01E4FD7F201228257B0218
:0C26FC00E4FD7F301228251228AE80FE7D
:062A170000007F03DFFE5A
:012A1D002296
:1029BA00AD07AC06122A17ED1D70011C144C70F4F9
:0129CA0022EA
:082A0E007F187E55DEFEDFFC9F
:012A1600229D
:1029CB00AD07AC06122A0EED1D70011C144C70F4F1
:0129DB0022D9
:10009E000000000000000000002F0000000007001C
:1000AE00070000147F147F1400242A7F2A12006296
:1000BE006408132300364955225000000503000042
:1000CE0000001C224100000041221C000014083ECA
:1000DE0008140008083E0808000000A06000000890
:1000EE0008080808000060600000002010080402E4
:1000FE00003E5149453E0000427F400000426151A2
:10010E004946002141454B31001814127F1000273B
:10011E0045454539003C4A494930000171090503FE
:10012E0000364949493600064949291E000036362F
:10013E000000000056360000000814224100001492
:10014E00141414140000412214080002015109066F
:10015E0000324959513E007C1211127C007F4949F0
:10016E004936003E41414122007F4141221C007F21
:10017E0049494941007F09090901003E4149497A2F
:10018E00007F0808087F0000417F410000204041A9
:10019E003F01007F08142241007F40404040007F15
:1001AE00020C027F007F0408107F003E4141413E59
:1001BE00007F09090906003E4151215E007F0919A1
:1001CE0029460046494949310001017F0101003F9E
:1001DE004040403F001F2040201F003F4038403F1E
:1001EE000063140814630007087008070061514982
:1001FE00454300007F41410000552A552A55000015
:10020E0041417F0000040201020400404040404092
:10021E00000001020400002054545478007F48442A
:10022E00443800384444442000384444487F003861
:10023E005454541800087E0901020018A4A4A47C8A
:10024E00007F080404780000447D40000040808454
:10025E007D00007F102844000000417F4000007C9C
:10026E0004180478007C08040478003844444438A8
:10027E0000FC242424180018242418FC007C0804F4
:10028E00040800485454542000043F444020003CCD
:10029E004040207C001C2040201C003C4030403C54
:1002AE00004428102844001CA0A0A07C00446454E4
:1002BE004C44141414141414000000000000000028
:1002CE000000000000000000000000F80000000028
:1002DE00000000333000000000100C06100C060069
:1002EE00000000000000000040C07840C0784000D0
:1002FE00043F04043F040400007088FC0830000032
:10030E00001820FF211E0000F008F000E018000089
:10031E0000211C031E211E0000F008887000000042
:10032E001E2123241927211010160E000000000094
:10033E000000000000000000000000E018040200B1
:10034E00000000071820400000020418E000000022
:10035E000040201807000000404080F08040400020
:10036E000202010F01020200000000F00000000076
:10037E000101011F0101010000000000000000004A
:10038E0080B07000000000000000000000000000BF
:10039E000001010101010101000000000000000048
:1003AE0000303000000000000000000080601804E3
:1003BE00006018060100000000E010080810E000C0
:1003CE00000F102020100F00001010F80000000089
:1003DE000020203F202000000070080808887000D0
:1003EE000030282422213000003008888848300050
:1003FE000018202020110E000000C02010F8000070
:10040E0000070424243F240000F808888808080008
:10041E000019212020110E0000E01088881800001D
:10042E00000F112020110E0000380808C8380800EF
:10043E000000003F0000000000708808088870006F
:10044E00001C222121221C0000E010080810E000F0
:10045E000000312222110F00000000C0C000000079
:10046E00000000303000000000000080000000009E
:10047E000000806000000000000080402010080096
:10048E00000102040810200040404040404040005F
:10049E00040404040404040000081020408000003A
:1004AE000020100804020100007048080808F0003F
:1004BE000000003036010000C030C828E810E0000F
:1004CE000718272423140B000000C038E00000009A
:1004DE00203C23020227382008F888888870000004
:1004EE00203F202020110E00C030080808083800D8
:1004FE00071820202010080008F808080810E0004F
:10050E00203F202020100F0008F88888E8081000EF
:10051E00203F20202320180008F88888E8081000C3
:10052E00203F200003000000C030080808380000FB
:10053E0007182020221E020008F808000008F808FC
:10054E00203F210101213F20000808F80808000083
:10055E000020203F2020000000000808F8080800B6
:10056E00C08080807F00000008F888C0281808002E
:10057E00203F20012638200008F808000000000067
:10058E00203F20202020300008F8F800F8F808005E
:10059E00203F003F003F200008F830C00008F80858
:1005AE00203F200007183F00E01008080810E00068
:1005BE000F10202020100F0008F808080808F0007F
:1005CE00203F210101010000E01008080810E000A2
:1005DE000F18242438504F0008F888888888700037
:1005EE00203F2000030C30200070880808083800D7
:1005FE000038202121221C00180808F808081800CD
:10060E000000203F2000000008F808000008F8084D
:10061E00001F202020201F000878880000C83808FE
:10062E00000007380E010000F80800F80008F80076
:10063E00033C0700073C0300081868808068180810
:10064E0020302C03032C30200838C800C83808008E
:10065E000000203F2000000010080808C8380800DD
:10066E002038262120201800000000FE0202020081
:10067E000000007F40404000000C30C00000000031
:10068E00000000010638C00000020202FE00000059
:10069E00004040407F0000000000040202020400FF
:1006AE00000000000000000000000000000000003C
:1006BE008080808080808080000202040000000024
:1006CE00000000000000000000008080808000001C
:1006DE000019242222223F2008F80080800000000A
:1006EE00003F112020110E000000008080800000CD
:1006FE00000E112020201100000000808088F800DC
:10070E00000E112020103F2000008080808000000D
:10071E00001F222222221300008080F08888881871
:10072E000020203F2020000000008080808080007C
:10073E00006B94949493600008F800808080000011
:10074E00203F210000203F200080989800000000EC
:10075E000020203F2020000000000080989800001C
:10076E0000C08080807F000008F80000808080003C
:10077E00203F24022D302000000808F80000000061
:10078E000020203F2020000080808080808080001C
:10079E00203F20003F20003F8080008080800000AE
:1007AE00203F210000203F2000008080808000003C
:1007BE00001F202020201F0080800080800000006D
:1007CE0080FFA12020110E0000000080808080009C
:1007DE00000E112020A0FF8080808000808080008D
:1007EE0020203F21200001000000808080808000BA
:1007FE000033242424241900008080E0808000002F
:10080E000000001F2020000080800000008080007B
:10081E00001F202020103F208080800000808080DC
:10082E0000010E300806010080800080008080806C
:10083E000F300C030C300F00008080008080800091
:10084E000020312E0E3120008080800000808080BC
:10085E0080818E701806010000808080808080006C
:10086E000021302C2221300000000000807C02028A
:10087E0000000000003F404000000000FF000000AC
:10088E0000000000FF0000000002027C800000005B
:10089E000040403F00000000000601010202040477
:1008AE000000000000000000100894979C9694F839
:1008BE0097949C94F60400000000000000000000D5
:1008CE0000000000000000000040472424140CFF2C
:1008DE0004042444443E0400000000000000000014
:1008EE000000000000000000000484848484FC8466
:1008FE00848484C486840000000000000000000090
:10090E00000000000000000040404040784740409A
:10091E004040407F406040000000000000000000AA
:10092E0000000000000000002030AC63201000FC2E
:10093E0044444444FE040000000000000000000097
:10094E000000000000000000226722121252407FB9
:10095E00444444447F40400000000000000000007A
:10096E00000000000000000000040404040404FC65
:10097E000404040404040000000000000000000051
:10098E000000000000000000202020202020203F3A
:10099E002020202020202000000000000000000069
:1009AE00000000000000000020202020202020FF5A
:1009BE002020202020202000000000000000000049
:1009CE00000000000000000080804020100C03009A
:1009DE00030C10204080800000000000000000008A
:1009EE00000000000000000040301196909091969B
:1009FE00909098141350300000000000000000008A
:100A0E000000000000000000040404040444847E7E
:100A1E0006050404040404000000000000000000A9
:100A2E0000000000000000008040301E101010FF7B
:100A3E001010101010100000000000000000000048
:100A4E000000000000000000404042424242427F4F
:100A5E0042424242424040000000000000000000BE
:100A6E000000000000000000403C10FF101020109D
:100A7E008F7808F808F80000000000000000000061
:100A8E000000000000000000020602FF0101044207
:100A9E0021184681403F00000000000000000000C9
:100AAE000000000000000000100C04841464050611
:100ABE00F404040404140C00000000000000000004
:100ACE000000000000000000048484444724140C3D
:100ADE00070C1424448404000000000000000000F1
:100AEE00000000000000000002FA8282FE8040201A
:100AFE00504C434C5020400000000000000000000D
:100B0E00000000000000000008184884443F4044E4
:100B1E0058414E60584740000000000000000000A1
:100B2E00000000000000000020A4A4A4FFA4B4282C
:100B3E0084708F0808F80800000000000000000014
:100B4E000000000000000000040A49887E050484AD
:100B5E004020130C33408000000000000000000015
:100B6E000000000000000000403011969090919619
:100B7E009090981413503000000000000000000008
:100B8E000000000000000000040404040444847EFD
:100B9E000605040404040400000000000000000028
:100BAE0000000000000000000000F010101010FF08
:100BBE0010101010F00000000000000000000000F7
:100BCE00000000000000000000000F04040404FFF9
:100BDE00040404040F0000000000000000000000E8
:100BEE0000000000000000000000800000E0020491
:100BFE00180000004080000000000000000000000F
:100C0E000000000000000000100C0300003F4040F8
:100C1E004040407800010E0000000000000000007F
:100C2E000000000000000000F8FEFEFFFFFFFEFCCB
:100C3E00FCFEFEFFFFFEFEF80000000000000000BC
:100C4E0000000000000000000001070F0F1F3F7F93
:100C5E007F3F1F0F0F070100000000000000000083
:080C6E0000000000000000007E
:081708004104901F4104911FF0
:10287400F583E5822CF582E43583F583E493FF7DCB
:012884000152
:10288500ED6004D2B58002C2B5C2B4E4FEC2A0EFC9
:1028950030E704D2B78002C2B7D2A0EF25E0FF0E21
:0828A500EEB408E9D2B4D2B58B
:0128AD002208
:10242D00D2B67F647E001229CBC2B67F647E0012C5
:10243D0029CBD2B6E4FD7FAE122885E4FF122885A4
:10244D007F101228857F401228857F811228857F75
:10245D00CF1228857FA11228857FC81228857FA6D7
:10246D001228857FA81228857F3F1228857FD312D9
:10247D002885E4FF1228857FD51228857F801228B4
:10248D00857FD91228857FF11228857FDA1228855C
:10249D007F121228857FDB1228857F401228857FC9
:1024AD00201228857F021228857F8D1228857F14A2
:1024BD001228857FA41228857FA61228857FAF124A
:1024CD0028857FAF122885122918E4FDFF0200032D
:10000300AC07ED24B0FFE4FD122885EC54F0C45492
:100013000F4410FF122885EC540F4401FF0228857A
:1029DC00E4FD7F8D1228857F141228857FAF022895
:0129EC008565
:1029ED00E4FD7F8D1228857F101228857FAE022889
:0129FD008554
:10291800E4FCEC24B0FFE4FD122885E4FF122885CE
:102928007F10122885E4FB7D01E4FF1228850BEB5C
:08293800B480F40CECB408DAE1
:012940002274
:0729890090045CEFF0A905CA
:102990007F017E00AD0119ED600C90045CE0FD7CD0
:0629A0000012108880EE19
:0129A600220E
:06270800AA07A905AF03BA
:10270E00E4FCEF24E0FBEAD3947F4004E4FA0909E9
:10271E00AF02AD01120003E4FC75F010EBA42CF532
:10272E0082E435F0F583E58224C6F582E583340232
:10273E0012287E0CECB408E1AF02E904FD1200038E
:10274E00E4FC75F010EBA42CF582E435F0F583E58E
:10275E008224CEF582E583340212287E0CECB40876
:02276E00E12266
:0E24DD00900453EFF0A3EDF0A3EAF0A3EBF0B0
:1024EB00E490045BF0900459F0900457E0FF9004E3
:1024FB0059E0FEC39F400302258BC3EF9E14FD7F63
:10250B000A122989900455E0FCA3E0FDCFCDCFCE74
:10251B00CCCE12109A7C007D0A12109A90045AEDC0
:10252B00F0A3E07030900457E014FF900459E0FEE4
:10253B00C39F5021A3E07017900458E0C3138EF093
:10254B00A4FF900453E02FFFA3E0FD7B2080259098
:10255B00045B7401F0900458E0C313FFA3E0FEEF9B
:10256B008EF0A4FF900453E02FFFA3E0FD90045ADC
:10257B00E02430FB122708900459E004F00224F405
:01258B00222D
:1027D100900484EFF0A3EDF0A3EBF0A3EAF0A3E9FA
:0127E100F007
:1027E200E4A3F0900486E0FBA3E0FAA3E0F9A3E0FF
:1027F200F582758300121039FB6027900484E0FF94
:10280200A3E0FD122708900484E02408F0E0D394AA
:10281200784007E4F0A3E02402F0900489E004F099
:0228220080C173
:012824002291
:04282500A907AA0550
:10282900E4900461F0120003E4FC75F040EBA42489
:10283900B6F582E5F03408122874900461E004F0DA
:102849000CECB410E5AF01EA04FD120003E4FC75D9
:10285900F040EBA424D6F582E5F0340812287490F0
:0A2869000461E004F00CECB410E58B
:012873002242
:0A261800900461EFF0900463EBF012
:10262200E4900468F0A3F0900464E0FF540770089B
:10263200EF131313541F800A900464E0131313540E
:102642001F0490046AF090046AEDF0900464E0FFC5
:1026520090046AE0FDC39F5040900461E0FF1200C5
:1026620003E0FC900463E0FFECC39F5024900465F8
:10267200E0FBA3E0FAA3E0F9A3E475F0011211056F
:1026820085F082F583121039FF7D011228850C80B6
:09269200D290046AE004F080B269
:01269B00221C
:06296500131313541FFDC3
:10296B00AC07ED24B0FFE4FD122885EC54F0C45401
:0E297B000F4410FF122885EC540FFF02288530
:10206900FFA3E004FD900477E0F9A3E0FAA3E09070
:0C207900047FC9F0A3EAF0A3E9F07B01AA
:0D20850090047DEDF0A3EBF090047CEFF0F3
:10209200E4900482F0A3F090047DE0FE12296590A2
:1020A200047CE0FFA3E0FD131313541F75F080A41A
:1020B2002FF582E435F0F583C083C08290047FE07F
:1020C200FBA3E0FAA3E0F9D082D083121039FE908C
:1020D200047EE0705BED5407B40800400302218ADD
:1020E2009020E9F828287302210102210802210E1A
:1020F20002211402211A02212002212602212CEEA1
:1021020054FEFE02218AEE54FDFE807CEE54FBFE5C
:102112008076EE54F7FE8070EE54EFFE806AEE5445
:10212200DFFE8064EE54BFFE805EEE547FFE805878
:1021320090047DE05407B40800504D902144F828E3
:10214200287302215C02216202216802216E0221AF
:102152007402217A022180022186EE4401FE802847
:10216200EE4402FE8022EE4404FE801CEE4408FE91
:102172008016EE4410FE8010EE4420FE800AEE44EB
:1021820040FE8004EE4480FEAF0690047CE0FEA395
:10219200E0131313541FFD75F080A42EF582E4356D
:1021A200F0F583C083C08290047FE0FBA3E0FAA332
:1021B200E0F9D082D083EF12106675F080EDA42E84
:1021C200F582E435F0F583C083C08290047FE0FBA2
:1021D200A3E0FAA3E0F9D082D083121039FF7D0187
:0321E2000228854B
:04277000AA05A9030A
:10277400E490048EF0A3F0FBEA122965E97002806C
:1027840045EA5407B40800503D902794F82828736C
:102794000227AC0227B00227B40227B80227BC02E2
:1027A40027C00227C40227C87B01801A7B02801637
:1027B4007B0480127B08800E7B10800A7B208006BD
:0D27C4007B4080027B80AF037D01022885F1
:101B1100900473121264900477EBF0A3EAF0A3E946
:011B2100F0D3
:101B2200900490E0FFA3E012206D900490E004FF87
:101B3200A3E012206D900490E004122069900490BA
:101B4200E004FFA3E01412206D900490E014FFA3C0
:101B5200E012206D900490E014122069900490E04D
:101B620014FFA3E01412206D900490E012206990FB
:101B72000490E0FFA3E01412206D900473E0FCA334
:101B8200E0FDA3E0FEA3E0FF121F29E4FBFA79A027
:101B92007841120D6EE4FBFA79F87841120C7D124D
:101BA2000E7490047AEFF0900473E0FCA3E0FDA3BE
:101BB200E0FEA3E0FF121F3FE4FBFA79A078411296
:101BC2000D6EE4FBFA79F87841120C7D120E7490D6
:101BD200047BEFF0FD90047AE0FF900477E0F9A334
:101BE200E0FAA3E090047FC9F0A3EAF0A3E9F0E4ED
:101BF200FB12208590047AE004FFA3E0FD900477B5
:101C0200E0F9A3E0FAA3E090047FC9F0A3EAF0A30D
:101C1200E9F0E4FB12208590047AE004FFA3E004DB
:101C2200FD900477E0F9A3E0FAA3E090047FC9F005
:101C3200A3EAF0A3E9F0E4FB12208590047AE00421
:101C4200FFA3E014FD900477E0F9A3E0FAA3E0908B
:101C5200047FC9F0A3EAF0A3E9F0E4FB1220859027
:101C6200047AE014FFA3E0FD900477E0F9A3E0FA20
:101C7200A3E090047FC9F0A3EAF0A3E9F0E4FB1229
:101C8200208590047AE014FFA3E004FD900477E03D
:101C9200F9A3E0FAA3E090047FC9F0A3EAF0A3E974
:101CA200F0E4FB12208590047AE014FFA3E014FD17
:101CB200900477E0F9A3E0FAA3E090047FC9F0A3CF
:101CC200EAF0A3E9F0E4FB12208590047AE0FFA396
:101CD200E004FD900477E0F9A3E0FAA3E090047F2A
:101CE200C9F0A3EAF0A3E9F0E4FB12208590047A9C
:101CF200E0FFA3E014FD900477E0F9A3E0FAA3E08B
:101D020090047FC9F0A3EAF0A3E9F0E4FB12208576
:101D120090047AE0900490F090047BE0900491F0BB
:011D2200229E
:100C7600020EE0E86480F8E933E83360110460F0BE
:100C8600ED33EC337009E8FCE9FDEAFEEBFF2204E4
:100C960060DED3EB9FEA9EE99DE8C2E78CF0C2F7DF
:100CA60095F0400CE8CCF8E9CDF9EACEFAEBCFFBAB
:100CB600120EAB85D0F05804700320D5B3E804704B
:100CC600075002B2D5020EEA92D5EC0460F7E4CCE6
:100CD600C0E0C398F8603B94186008400DD0E0FB74
:100CE600020EC2E4FBFAC9FC8028E830E406E4C937
:100CF600FBE4CAFCE830E305E4C9CACBFCE85407C8
:100D06006010F8C3E913F9EA13FAEB13FBEC13FCD2
:100D1600D8F130F52FC3E49CFCEF9BFFEE9AFEED75
:100D260099FDD0E0FBEF4E4D4C701222DB03020E14
:100D3600E7EC2CFCEF33FFEE33FEED33FDED30E751
:100D4600EB020EC2EF2BFFEE3AFEED39FDD0E0FBD3
:100D560050130BBB0003020EEAED13FDEE13FEEF7C
:080D660013FFEC13FC020EC2A6
:100D6E00EC4D6011E8497017ED33EC3304600DE47F
:100D7E00FCFFFEFD22E933E8330470F8020EE012A8
:100D8E000EAB58046009E4CC2481500628500902A9
:100D9E000EEA284003020EE7C0E0EB4A7044B98029
:100DAE0006D0E0FB020ED6EF4E701CBD8008EBFFA6
:100DBE00EAFEE9FD80EBE98DF0A4FEE5F0020E57A8
:100DCE00E9CDF9EAFEEBFFEF89F0A4FCE5F0CE8960
:100DDE00F0A42EFFE435F0CD89F0A42DFEE435F01D
:100DEE008067EF4E7005BD80D780C3EF8BF0A4AC4B
:100DFE00F0EE8BF0A42CFCE435F0F8EF8AF0A42C86
:100E0E00E5F038FCE433CB8DF0A42CFCE5F03BF898
:100E1E00EE8AF0A42CFCE5F038F8E433CF89F0A488
:100E2E002CFCE5F038CF3400CE89F0A42FFFE5F08E
:100E3E003EFEE433C98DF0A42EFEE5F039CD8AF0E6
:100E4E00A42FFFE5F03EFEE43DFD33D0E0FB50075E
:100E5E000BBB000F020EEAEC2CFCEF33FFEE33FE61
:060E6E00ED33FD020EC28F
:100E7400EDD2E7CD33EC3392D524814006E4FFFE76
:100E8400FDFC22FCE4CFCECDCC24E0501174FF80D5
:100E9400EDC3CC13CCCD13CDCE13CECF13CF047072
:070EA400F030D5DE0211E978
:101EE1003A70FA83BCAAE9E43E81E0F8BF9DE9E6D5
:101EF1003F80000039283C1ABB9969663DA335E350
:101F0100BF255DE73FC90FDB418DDBCCC44936EE10
:101F110045C9913FC5B0F83D3F800000C317F53476
:101F2100452FFA73C60AFDDD121FEA04A2E19203EE
:101F31001420E015901EE17404120FD38030121F9B
:101F4100EA30E102B20320E0EBA883A98290048A7F
:101F510012126489828883901EF57404120FD3854E
:101F610082F090048A12121885F082120D6EED4CE7
:101F71006007300304EC6480FC22121FEAC0E0A871
:101F810083A98290048A12126489828883901F191E
:101F91007403120FD38582F090048A12121885F00F
:101FA10082120D6E90048AE0CCF0A3E0CDF0A3E0A4
:101FB100CEF0A3E0CFF0901F097403120FD3D082AB
:101FC1008582F090048A12121885F082E58230E051
:101FD10007120EF8B2038096EFCBFFEECAFEEDC9F1
:101FE100FDECC8FC120EF88085ED33EC547FCC3348
:101FF100920324605007D0E0D0E0020EE07B837AA8
:10200100F97922783E120D6EEDF933ECF833248123
:102011005011EFFBEEFA120E74120F95ECB2E7FCC1
:10202100120C7DED33EC33602F2403F8C313FCED68
:1020310092E7FDE82481E4501FECF8EDF9EEFAEFA8
:10204100FB120E74EF04C2E0FCF582120F9FECB29A
:10205100E7FC120C7DE58203FAED33EC33600714E3
:0820610013FCED92E7FDEA22F9
:100EAB00E9D2E7C933E833F892D5EDD2E7CD33EC8D
:070EBB0033FC5002B2D52206
:100EC200EC30E7100FBF000C0EBE00080DBD000491
:100ED2000BEB6014A2D5EB13FCED92E7FD2274FF3D
:100EE200FCFDFEFF22E480F8A2D574FF13FC7D8096
:030EF200E480EFAA
:100EF500020EEAEC5D046005E859047003020EE099
:100F0500120EAB580460F6EC4860F2EC7004FDFE7E
:100F1500FF22C860DB2481C85009C39860025006CF
:100F2500020EE79850CAF582E9294B4A7005AB8253
:100F3500020ED675F0007C1A7880C3EF9BEE9AED11
:100F450099400DC3EF9BFFEE9AFEED99FDE842F047
:100F5500DC23ACF0D0E0FFD0E0FED0E0FDAB82209A
:100F6500E7101BEB60BAEC2CFCEF33FFEE33FEED24
:100F750033FD020EC2E803F830E705C0F075F00056
:100F8500EF2FFFEE33FEED33FD40B830E7C280AA08
:100F950075F020800E75F010800575F0087D007ED7
:100FA500007F003392D530D5031211E9EC334010A0
:100FB500EF33FFEE33FEED33FDEC33FCD5F0ED22E0
:0E0FC500E5F0247EA2D513CC92E7CDCEFF221C
:100FD300C0E0EFFBEEFAEDF9ECF8120D6ED0E0F5A0
:100FE300F0EFFBEEFAEDF9ECF8121208A3A3A3A3BA
:100FF300E8C0E0E9C0E0EAC0E0EBC0E0C0F0120DF9
:101003006E121224A3A3A3A3120C7DD0F0D0E0FB95
:0D101300D0E0FAD0E0F9D0E0F8D5F0D4221A
:0300000002258C4A
:0C258C00787FE4F6D8FD7581200225D38D
:10102000BB010689828A83E0225002E722BBFE02CE
:09103000E32289828A83E4932201
:10103900BB010CE58229F582E5833AF583E022506C
:1010490006E92582F8E622BBFE06E92582F8E222B6
:0D105900E58229F582E5833AF583E49322D0
:10106600F8BB010DE58229F582E5833AF583E8F0C0
:10107600225006E92582C8F622BBFE05E92582C86C
:02108600F22254
:10108800EF8DF0A4A8F0CF8CF0A428CE8DF0A42E7C
:02109800FE2236
:10109A00BC000BBE0029EF8DF084FFADF022E4CC3A
:1010AA00F875F008EF2FFFEE33FEEC33FCEE9DEC03
:1010BA00984005FCEE9DFE0FD5F0E9E4CEFD22ED49
:1010CA00F8F5F0EE8420D21CFEADF075F008EF2F93
:1010DA00FFED33FD4007985006D5F0F222C398FD84
:0510EA000FD5F0EA2221
:1010EF00C5F0F8A3E028F0C5F0F8E582158270028C
:0610FF001583E038F02229
:10110500A3F8E0C5F025F0F0E5821582700215839D
:06111500E0C838F0E822FA
:10111B0075F008758200EF2FFFEE33FECD33CDCC8B
:10112B0033CCC58233C5829BED9AEC99E58298400E
:10113B000CF582EE9BFEED9AFDEC99FC0FD5F0D6EB
:10114B00E4CEFBE4CDFAE4CCF9A88222B800C1B915
:10115B000059BA002DEC8BF084CFCECDFCE5F0CB53
:10116B00F97818EF2FFFEE33FEED33FDEC33FCEB8C
:10117B0033FB10D703994004EB99FB0FD8E5E4F947
:10118B00FA227818EF2FFFEE33FEED33FDEC33FC34
:10119B00C933C910D7059BE99A4007EC9BFCE99A28
:1011AB00F90FD8E0E4C9FAE4CCFB2275F010EF2F6D
:1011BB00FFEE33FEED33FDCC33CCC833C810D7076D
:1011CB009BEC9AE899400AED9BFDEC9AFCE899F8A8
:0E11DB000FD5F0DAE4CDFBE4CCFAE4C8F9223B
:0E11E900C3E49FFFE49EFEE49DFDE49CFC2217
:1011F700EB9FF5F0EA9E42F0E99D42F0E89C45F04E
:0112070022C4
:10120800E493FC740193FD740293FE740393FF222C
:0C121800E0F8A3E0F9A3E0FAA3E0FB2259
:10122400E493F8740193F9740293FA740393FB2220
:10123400BB010DE58229F582E5833AF58302121894
:101244005007E92582F80212A1BBFE07E92582F8BE
:101254000212AEE58229F582E5833AF5830212246F
:0C126400ECF0A3EDF0A3EEF0A3EFF022FD
:10127000A8828583F0D083D082121287121287123F
:101280001287121287E473E493A3C583C5F0C58364
:10129000C8C582C8F0A3C583C5F0C583C8C582C8C8
:0112A000222B
:1025980002269CE493A3F8E493A34003F68001F297
:1025A80008DFF48029E493A3F85407240CC8C33344
:1025B800C4540F4420C8834004F456800146F6DF13
:1025C800E4800B01020408102040809012BBE47ED6
:1025D800019360BCA3FF543F30E509541FFEE49308
:1025E800A360010ECF54C025E060A840B8E493A3CF
:1025F800FAE493A3F8E493A3C8C582C8CAC583CAFA
:10260800F0A3C8C582C8CAC583CADFE9DEE780BEB1
:0117100000D8
:0D12A100E6FB08E6F908E6FA08E6CBF822BD
:0D12AE00E2FB08E2F908E2FA08E2CBF822C0
:00000001FF
